:100000000C9490180C94AD180C94AD180C943F1CE3
:100010000C94AD180C94AD180C94AD180C94AD184C
:100020000C94AD180C94AD180C94AD180C94AD183C
:100030000C94AD180C94BC250C94AD180C94AD1810
:100040000C94AD180C94AD180C94AD180C94AD181C
:100050000C94F2190C94AD180C94AD180C94AD18C6
:100060000C94AD180C94AD180C94AD180C94AD18FC
:1000700047657420504F4E473A2025692E25692E3A
:1000800025692E25690D0A004552524F520D0A0D61
:100090000A0052656164790D0A0D0A000D0A004ECE
:1000A0005450204572722E0D0A00475720202025FB
:1000B00031692E2531692E2531692E2531690D0AC8
:1000C000004D41534B202531692E2531692E2531B4
:1000D000692E2531690D0A000D0A4950202020257E
:1000E00031692E2531692E2531692E2531690D0A98
:1000F00000436F6D70696C69657274206D6974205E
:100100004743432056657273696F6E20342E322E3A
:1001100035203230303831323033202870726572F9
:10012000656C65617365290D0A00436F6D70696CBC
:100130006965727420616D20446563203137203217
:1001400030303820756D2031363A35343A32320D40
:100150000A000A0D53797374656D205265616479E4
:100160000A0D00524553455420202D2072657365B9
:10017000742074686520415652202D20436F6E74A0
:10018000726F6C6C65720D0A415250202020202D38
:10019000206C69737420746865204152502074612A
:1001A000626C650D0A544350202020202D206C697C
:1001B00073742074686520746370207461626C6568
:1001C0000D0A495020202020202D206C6973742FA7
:1001D0006368616E67652069700D0A4E4554202082
:1001E00020202D206C6973742F6368616E67652011
:1001F0006E65746D61736B0D0A524F5554455220F4
:100200002D206C6973742F6368616E676520726F4F
:10021000757465722069700D0A4E5450202020209C
:100220002D206C6973742F6368616E6765204E546E
:10023000500D0A4E5450522020202D204E54502054
:10024000526566726573680D0A4D41432020202077
:100250002D206C697374204D41432D616464726577
:1002600073730D0A564552202020202D206C69738F
:100270007420656E632076657273696F6E206E758B
:100280006D6265720D0A535620202020202D2073A8
:100290006574207661726961626C650D0A50494E21
:1002A000472020202D2073656E642050696E670DF5
:1002B0000A54494D452020202D206765742074691B
:1002C0006D650D0A48454C502020202D2070726924
:1002D0006E742048656C70746578740D0A3F202038
:1002E000202020202D207072696E742048656C706B
:1002F000746578740D0A002563000A0D54494D4554
:100300003A202532693A2532693A2532690D0A00C8
:10031000496E68616C74206465722056617269610F
:10032000626C655B2532695D203D202532690D0ACE
:1003300000202054696D653A2534690D0A0020209B
:10034000504F52543A253469002E253369002E252A
:100350003369002E25336900202049503A2533693E
:100360000025326900202054696D653A2534690DF5
:100370000A002E253369002E253369002E253369A6
:1003800000202049503A253369002E253278002E6E
:10039000253278002E253278002E253278002E2541
:1003A00032780025326920204D41433A25327800C9
:1003B000454E4332384A36302D56657273696F6E3A
:1003C0003A202531780D0A004D79204D41433A20DD
:1003D0002532783A2532783A2532783A2532783AF9
:1003E0002532783A2532780D0A00526F757465729D
:1003F0002049503A202531692E2531692E25316951
:100400002E2531690D0A004E45544D41534B3A207B
:100410002531692E2531692E2531692E2531690D49
:100420000A004E54505F5365727665723A2025314A
:10043000692E2531692E2531692E2531690D0A0075
:100440004D792049503A202531692E2531692E25D4
:1004500031692E2531690D0A004142434445464722
:1004600048494A4B4C4D4E4F505152535455565794
:1004700058595A6162636465666768696A6B6C6D36
:100480006E6F707172737475767778797A303132F5
:10049000333435363738392B2F3D000400051A0622
:1004A000FF071F080009000AFF0B19C100C00DC299
:1004B00032CAEECB05C412C612C70CE400E520E236
:1004C00018E3B1E015E16F3C686561643E3C6D6521
:1004D000746120687474702D65717569763D22436E
:1004E0006F6E74656E742D547970652220636F6E23
:1004F00074656E743D22746578742F68746D6C3BFE
:1005000020636861727365743D69736F2D38383587
:10051000392D3122202F3E0D0A3C7469746C653EE2
:10052000415652206D696E69205765627365727617
:1005300065723C2F7469746C653E0D0A3C73747966
:100540006C6520747970653D22746578742F6373CF
:1005500073223E0D0A3C212D2D0D0A424F44592095
:100560007B096D617267696E3A203020302030203F
:10057000303B206261636B67726F756E642D636FD1
:100580006C6F723A2077686974653B207465787483
:100590002D616C69676E3A63656E7465723B207D90
:1005A0000D0A502C204449562C2048312C2048322A
:1005B000207B666F6E742D66616D696C793A20766A
:1005C000657264616E612C20617269616C3B2066AA
:1005D0006F6E742D73697A653A20313170783B7D86
:1005E0000D0A4831207B20206261636B67726F7552
:1005F0006E642D636F6C6F723A202343434343460E
:10060000463B2070616464696E672D746F703A3583
:1006100070783B2070616464696E672D626F7474DA
:100620006F6D3A3570783B666F6E742D73697A65BD
:100630003A20323070783B20636F6C6F723A20231F
:100640003030343036303B20666F6E742D776569FC
:100650006768743A626F6C643B206C657474657291
:100660002D73706163696E673A203870783B626FF2
:10067000726465722D746F703A2032707820736FD7
:100680006C696420234545454545453B20626F72B2
:100690006465722D6C6566743A2032707820736FD1
:1006A0006C696420234545454545453B626F72644E
:1006B00065722D626F74746F6D3A2032707820739A
:1006C0006F6C696420233030343036303B20626FE9
:1006D000726465722D72696768743A20327078208E
:1006E000736F6C696420233030343036303B7D0DBD
:1006F0000A4832207B20666F6E742D73697A653AE2
:1007000020313570783B2070616464696E672D74A8
:100710006F703A20323070783B2070616464696E8B
:10072000672D6C6566743A353070783B2070616473
:1007300064696E672D72696768743A353070783B0A
:10074000636F6C6F723A233030343038303B206640
:100750006F6E742D7765696768743A626F6C643B7D
:1007600020746578742D6465636F726174696F6E4F
:100770003A756E6465726C696E653B626F72646532
:10078000722D746F703A2031707820736F6C6964C9
:1007900020233030343038303B7D20502C204831FD
:1007A0002C204832207B6D617267696E3A20307070
:1007B000782030707820357078203070783B7D0D4F
:1007C0000A2D2D3E0D0A3C2F7374796C653E3C2F2B
:1007D000686561643E0D0A3C626C6F636B71756F96
:1007E00074653E0D0A3C626C6F636B71756F746566
:1007F0003E0D0A3C626C6F636B71756F74653E0DE4
:100800000A3C626F64793E3C64697620616C69677A
:100810006E3D2263656E746572223E0D0A3C68313E
:100820003E415652206D696E69205765627365724C
:100830007665723C2F68313E0D0A3C2F6469763E26
:100840003C42523E0D0A3C68323E476C2675756D3F
:100850006C3B636B77756E7363683C2F68323E3C0C
:1008600042523E0D0A3C703E57656E6E2064752004
:1008700064696573656E2054657874206C65736572
:100880006E206B616E6E73742C20686173742064CB
:1008900075206573206765736368616666743A3CAA
:1008A0002F703E3C42523E3C42523E0D0A3C703E4E
:1008B0003C696D67207372633D2272616B65742EB3
:1008C000676966222077696474683D223930222086
:1008D0006865696768743D223932223E3C2F703E5C
:1008E0003C42523E0D0A3C703E44657220576562A0
:1008F000736572766572206C2661756D6C3B7566EA
:100900007420212121203C2F703E3C42523E0D0A92
:100910003C666F726D206E616D653D22666F726D13
:100920003122206D6574686F643D22706F7374228C
:1009300020616374696F6E3D22223E0D0A3C702077
:10094000616C69676E3D226C656674223E266E623C
:1009500073703B202020203C2F703E0D0A3C7020FD
:10096000616C69676E3D226C656674223E0D0A3CBF
:10097000696E70757420747970653D226368656373
:100980006B626F7822206E616D653D224F55542257
:100990002076616C75653D2241222025504F5254CE
:1009A00041303E0D0A3C7370616E20636C6173735D
:1009B0003D225374696C32223E506F727420412084
:1009C00050696E20303C2F7370616E3E3C2F703E3C
:1009D0000D0A3C7020616C69676E3D226C6566741F
:1009E000223E0D0A3C696E70757420747970653D05
:1009F00022636865636B626F7822206E616D653D6E
:100A0000224F5554222076616C75653D224222208A
:100A100025504F525441313E0D0A3C7370616E2097
:100A2000636C6173733D225374696C32223E506F64
:100A3000727420412050696E20313C2F7370616EBA
:100A40003E3C2F703E0D0A3C7020616C69676E3D24
:100A5000226C656674223E0D0A3C696E70757420C6
:100A6000747970653D22636865636B626F782220DC
:100A70006E616D653D224F5554222076616C75651F
:100A80003D2243222025504F525441323E0D0A3C14
:100A90007370616E20636C6173733D225374696C73
:100AA00032223E506F727420412050696E20323CD9
:100AB0002F7370616E3E3C2F703E0D0A3C64697668
:100AC00020616C69676E3D226C656674223E0D0A7A
:100AD0003C70726520616C69676E3D226C6566745E
:100AE000223E3C696E70757420747970653D227386
:100AF00075626D697422206E616D653D22535542A9
:100B0000222076616C75653D2253656E64656E22A8
:100B10003E3C2F7072653E0D0A3C62723E0D0A3CEF
:100B200062723E0D0A3C703E3C696D6720737263D1
:100B30003D222550494E4437222077696474683D30
:100B400022313722206865696768743D2231372277
:100B50003E20506F727420442050696E20373C2F25
:100B6000703E0D0A3C703E3C696D67207372633DB8
:100B7000222550494E4436222077696474683D220C
:100B8000313722206865696768743D223137223E1B
:100B900020506F727420442050696E20363C2F70B4
:100BA0003E0D0A3C703E3C696D67207372633D22C6
:100BB0002550494E4435222077696474683D2231BE
:100BC0003722206865696768743D223137223E20EC
:100BD000506F727420442050696E20353C2F703E57
:100BE0000D0A3C62723E0D0A3C62723E0D0A3C7474
:100BF00061626C6520616C69676E3D2263656E742D
:100C00006572222077696474683D22353030222075
:100C1000626F726465723D2230223E0D0A3C74722E
:100C20003E0D0A3C74682073636F70653D22636FEC
:100C30006C223E3C7020616C69676E3D2263656E7C
:100C4000746572223E45696E67616E673C2F703E27
:100C50003C2F74683E0D0A3C74682073636F7065A6
:100C60003D22636F6C223E3C7020616C69676E3D73
:100C70002263656E746572223E42616C6B656E3CE8
:100C80002F703E3C2F74683E0D0A3C7468207363DD
:100C90006F70653D22636F6C223E3C7020616C6911
:100CA000676E3D2263656E746572223E54656D7099
:100CB000657261747572205B266465673B435D3CB9
:100CC0002F703E3C2F74683E0D0A3C2F74723E0D0F
:100CD0000A3C74723E0D0A3C74643E3C7020616CA8
:100CE00069676E3D2263656E746572223E41442DD4
:100CF0004B616E616C303C2F703E3C2F74643E0D36
:100D00000A3C74643E3C7020616C69676E3D2263EE
:100D1000656E746572223E3C2F703E3C696D6720A3
:100D20007372633D2262616C6B652E676966222077
:100D300077696474683D222556414030302220682E
:100D400065696768743D223130223E3C2F74643EF1
:100D50000D0A3C74643E3C7020616C69676E3D22F4
:100D600063656E746572223E2556414030303C2FDB
:100D7000703E3C2F74643E0D0A3C2F74723E0D0A87
:100D80003C74723E0D0A3C74643E3C7020616C6998
:100D9000676E3D2263656E746572223E41442D4B41
:100DA000616E616C313C2F703E3C2F74643E0D0AC5
:100DB0003C74643E3C7020616C69676E3D226365E3
:100DC0006E746572223E3C2F703E3C696D672073E5
:100DD00072633D2262616C6B652E676966222077C3
:100DE000696474683D22255641403031222068658F
:100DF000696768743D223130223E3C2F74643E0D99
:100E00000A3C74643E3C7020616C69676E3D2263ED
:100E1000656E746572223E2556414030313C2F701C
:100E20003E3C2F74643E0D0A3C2F74723E0D0A3C0A
:100E300074723E0D0A3C74643E3C7020616C6967BC
:100E40006E3D2263656E746572223E41442D4B6196
:100E50006E616C323C2F703E202020203C2F746449
:100E60003E0D0A3C74643E3C7020616C69676E3DC7
:100E70002263656E746572223E3C2F703E3C696D44
:100E800067207372633D2262616C6B652E676966D1
:100E9000222077696474683D222025564140303213
:100EA000226865696768743D223130223E3C2F74A8
:100EB000643E0D0A3C74643E3C7020616C69676E50
:100EC0003D2263656E746572223E25564140303284
:100ED0003C2F703E3C2F74643E0D0A3C2F74723ED2
:100EE0000D0A3C74723E0D0A3C74643E3C702061F5
:100EF0006C69676E3D2263656E746572223E414483
:100F00002D4B616E616C333C2F703E202020203CC5
:100F10002F74643E0D0A3C74643E3C7020616C6921
:100F2000676E3D2263656E746572223E3C2F703E93
:100F30003C696D67207372633D2262616C6B652E44
:100F4000676966222077696474683D2220255641CE
:100F5000403033226865696768743D223130223E33
:100F60003C2F74643E0D0A3C74643E3C7020616CFE
:100F700069676E3D2263656E746572223E25564137
:100F80004030333C2F703E3C2F74643E0D0A3C2FA2
:100F900074723E0D0A3C2F7461626C653E0D0A3C12
:100FA00042523E3C42523E203C7020616C69676E6A
:100FB0003D226C656674223E203C68323E3C2F68C0
:100FC000323E3C42523E0D0A3C703E3C612068720B
:100FD00065663D225374617475732E68746D223E8C
:100FE0005374617475733C2F613E3C2F703E3C42DC
:100FF000523E0D0A3C42523E3C42523E203C702042
:10100000616C69676E3D226C656674223E203C68A7
:10101000323E3C2F68323E3C42523E0D0A3C703E0E
:101020003C6120687265663D22687474703A2F2FA7
:101030007777772E756C7269636872616469672E61
:101040006465223E7777772E756C7269636872618A
:101050006469672E64653C2F613E3C2F703E3C42C4
:10106000523E0D0A3C7020616C69676E3D226C65D2
:101070006674223E556C72696368205261646967C8
:101080002032303038203C42523E3C42523E3C2FCF
:10109000703E0D0A3C2F626F64793E3C2F68746D80
:1010A0006C3E0D0A0D0A25454E44003C626C6F6390
:1010B0006B71756F74653E0D0A3C626C6F636B718A
:1010C000756F74653E0D0A3C626C6F636B71756F72
:1010D00074653E0D0A3C626F64793E3C646976201B
:1010E000616C69676E3D2263656E746572223E0DA8
:1010F0000A3C68313E5374617475732050616765B2
:101100003C2F68313E0D0A3C2F6469763E3C4252CA
:101110003E0D0A3C6469763E436F6D70696C69658B
:10112000727420616D204465632031372032303085
:101130003820756D2031363A35343A32343C767287
:101140003E20436F6D70696C69657274206D6974BF
:10115000204743432056657273696F6E20342E32E8
:101160002E352032303038313230332028707265DD
:1011700072656C65617365293C2F6469763E0D0A62
:101180003C6469763E426573756368657220736579
:1011900069742053746172742064657320576562AA
:1011A000736572766572732028255641403039295F
:1011B0003C2F6469763E0D0A3C42523E3C6469769F
:1011C0003E416B7475656C6C65205A6569743A2094
:1011D0002554494D453C2F6469763E0D0A3C4252E8
:1011E0003E3C42523E203C7020616C69676E3D225D
:1011F0006C656674223E203C68323E3C2F68323E6D
:101200003C42523E0D0A3C703E3C6120687265666D
:101210003D22696E6465782E68746D223E48617562
:10122000707473656974653C2F613E3C2F703E3C61
:1012300042523E0D0A3C42523E3C42523E3C7020DD
:10124000616C69676E3D226C656674223E203C6865
:10125000323E3C2F68323E3C42523E0D0A3C703ECC
:101260003C6120687265663D22687474703A2F2F65
:101270007777772E756C7269636872616469672E1F
:101280006465223E7777772E756C72696368726148
:101290006469672E64653C62723E0D0A3C2F613EB4
:1012A0003C62723E556C7269636820526164696782
:1012B00020323030373C2F703E3C42523E3C2F7340
:1012C0006D616C6C3E0D0A3C2F626F64793E3C2F61
:1012D00068746D6C3E0D0A25454E440047494638FA
:1012E000396111001100A53F004D4D4D50504F5434
:1012F0005454416A445C5C5C3F73426262626A6B54
:101300006B16A71E6F6F6F5F7A6019AD211CB22537
:101310005694597B7B7B1ABD2323BA2C1BC3258390
:1013200083831CCA267C8B7D1CD3268B8B8B2DCC78
:10133000361CD8261DDF289091911DE1281EE22938
:1013400021E22C35DB3F2EE4389C9D9D3EE6474054
:10135000E649A5A5A547E75050E458A9A9A94EE834
:1013600056AEAEADAFB0AFB0B0B064E66BB4B4B52E
:10137000B8B8B96CEC7377ED7DBFC0BFC0C0C0C258
:10138000C2C2A6DAA9C9C8C993F198CCCCCCD1D134
:10139000D1A5F3A9D5D5D5DEDEDEE0E0E0C5F7C8FE
:1013A000E7E7E7EFEFEFFFFFFF21F904010A003F56
:1013B000002C00000000110011000006EDC09F503D
:1013C000D8CBC954A9966DC8FCF974371A8C65023C
:1013D0006940B4A66FA72B2D10E0C545E2680D7DCE
:1013E000BB1923E2097D3295C7A2918009753AC6DF
:1013F000C5F5729D3E1B15130B09123F3D371E119B
:101400002B3538352E221D1B180F10062C39340BA6
:101410001E2F383C382F241D1B1B150B061632308F
:1014200008212E3538352E221CA4180804072A2C32
:10143000081F272E2F2E271FA41B19080402292658
:1014400008191F2224221FC41B190802062D200B75
:10145000181B1DDED31B150B0212361A100FE0D31A
:10146000111000283F20140B13EA1B130B03094231
:10147000340E0D0B0F18326CC880E1C18202005887
:101480000C69914001840560102C601000C0082692
:101490003F624830608000010102002460817108D1
:1014A0000B0B0704189080026310003B25454E4447
:1014B00047494638396111001100A53F004D4D4D97
:1014C0005050505252525454545756575A5A595DCC
:1014D0005D5D5E5D5D5E5E5E606060626262636314
:1014E000636464646565656969696E6E6E70707069
:1014F0007777777878787A7A7A7B7B7B7E7E7E7F47
:101500007F7F8080808181818383838787878989AA
:10151000898B8B8B8E8E8E909191919192939393D8
:101520009797979A9A9A9C9C9CA5A5A5A9A9A9ABBF
:10153000ABABACACACAEAEADAFAFAFAFB0AFB0B0CD
:10154000B0B2B2B2B4B4B4B4B4B5B5B5B5B8B8B954
:10155000BFC0BFBFC0C0C0C0C0C2C2C2C8C8C8C967
:10156000C9C9CCCCCCD1D1D1D5D5D5DDDDDDDEDF3F
:10157000DEE0E0E0E7E7E7EFEFEFFFFFFF21F90450
:10158000010A003F002C00000000110011000006BD
:10159000ECC09F50D8CBD1562AD86DC8FCF976B88C
:1015A0005AEC551A7946B5A68FA713351006C442D2
:1015B000A3A1C0863EDECC31E97C369509A4118119
:1015C000C8843B9DA373629D461B1616120C0F1810
:1015D0003F3D381F13273437342720188210120A52
:1015E0002E39360D1D2C373B372C211982130A0951
:1015F0001C3431081F26343734272017821508077A
:101600000E2B2F061B23272C27231B828206050364
:10161000292508151B2021201BC3161508040C3092
:10162000230B1316181918D116130A0219371E178F
:1016300010DFD1101500283F231A0D12E916120AE7
:10164000010F423514110C1013152C549800414110
:1016500001002D86C080F040820204061028781018
:10166000000089263330284860A0000101001EB424
:101670006832C405070703186440D12408003B25DD
:10168000454E4447494638396102000A00A200002D
:10169000A2A5ED848FE5667CDD4960D62144DAFEA3
:1016A000010200000000000021F9040514000500FB
:1016B0002C0000000002000A0000030A4834231234
:1016C0000148001D5309003B25454E444749463813
:1016D00039615A005C00F700006C6E64BCBA4CB70C
:1016E000B5AC6161AF908CA8DADCAF6F66D8DCDE98
:1016F00071DEDEE28F8DD7DCDE88B6B6E07979D890
:10170000F0F0B0EFF0878378A9F6F4E18C8E549F67
:101710009FDAA1A2A9C9C9E07F78F0EFF0C7E9F28A
:10172000A2BAB782C9CAB07878C1E9F1627569F125
:10173000929279EBF1FBC4C981918EEFF0F2708C3B
:101740008CC0DEDEFAE3E0C8B7B4FA8A84D7C8C931
:10175000FBF8FD88A4A2787168BFA3A0F09F9FC08A
:10176000776E97FAFDB0DFDF9F8883C0BAB8C7876E
:1017700084F0FAFDC8F9FD717870D8CEC9C57F78BC
:10178000E48183A9D7E7FCF8FDA0B4B4979C98D86E
:10179000FCFDE0FCFEFB9897C19793917770C08C9D
:1017A0008088DEE8AFE6EA87EEEF947270EEF0F044
:1017B000BC7E78CC8178FCB0ACF2F2F3D4BFC89F89
:1017C0009998F0C0C0FBD2D4FBA09AA8BFBFE08517
:1017D0007BD9D1D3E1D3D3B0B1ACA6DEE8C9A8ACF4
:1017E000C081809A7E79B4F7F39EC7C771C1C0B13A
:1017F000EAF07C7264E4EAE9DFA090D6F4F6B0ACDB
:10180000ACD8F8FD94C4C2C9D5DB94F4F688F2F0E4
:10181000ECF5F6C7857CC1F6FE5BF7F4FBF9FD7CC1
:101820007870E4A19C93827EF1878BCCEDE0FCA6DE
:10183000A48EBCC09A7871CC7870FC8D8CE4A7A380
:101840004F928FFCBEBAFAFAFDBCEAE8FBD4D599F8
:10185000726CA7928EB4DCDEBCB9B7EC897F61B73D
:10186000B6699A9461A1A06C847E7CE1E767807878
:1018700088C4C27CA19B79D4D480CFD6C9EBE8A020
:10188000C0C064D4CA97ACAE78A9A3E49A9EB4C58C
:10189000C7EC6967CC888898CCCE647E7799949A97
:1018A00044AAAA92848769E8E9BCDFE8949497B4D3
:1018B000D7D5ECD4D4BCE6E8D4B9B5BCE0E17CE142
:1018C000E0ECB4B58C999284C6C78CDEE0D4A5A2B6
:1018D000FCA4A0CCB2B4D4CECCD4746CB47C66B42A
:1018E000C8BAE0AEA4AACCCEBCF7F5647469FCD546
:1018F000CDFBB4B8A492939C90926CD0CCA48B886E
:101900008BACAA688583E48D85CCFBFDD48483B43D
:101910009A98CCA098FCA9ABCCC2C0D49A9B9CC48A
:10192000C2A4BCB674888878E9E294968ECC7668B6
:10193000CC7C7274A2A5848A83FC9A99E4FCFEECA8
:10194000EEE7B27D70F1AEABFCDDD5FBBCC2ECE0E6
:10195000D2E0B4ADB4EDE9C8C1C0BCB4AEE4F8FEA9
:1019600064D0D6A4E9EA749C9A84988999BFBAB1E4
:101970009692A6E4E2B0736AD9867EA9A2A6D9CCD3
:10198000CEE49A92C4AEA6F2A9A6BCD4CECCC4C270
:101990008CDCD6D4B4B65CECE8ECA4A29C88806C59
:1019A000C2C174AFAA84C8CF74ACAE9CDCCAEC814F
:1019B0007EE4F4F694F0F6BC7E7ECC807EFC847EE1
:1019C000B4F3F67C716AE4F6F6ECA8A6B4D4CE8C37
:1019D000ADA6CCC0BAD47572B421F9040100003EA2
:1019E000002C000000005A005C000708FF007D0882
:1019F0001C48B0A0C18306990D5C23B087438504C1
:101A000019AE99280B818F893E98415008D1C7198A
:101A10008420438A1C499059C78110F45D64687022
:101A20004F9E2917053263699026C99B3849DA5CB5
:101A3000C8334F02311E640ADC3934A7D1A3327B8C
:101A40009CDC13D487CA811013D01121F0E91E59F0
:101A500004F51145CA35A4C35D457DF498B1AB07C3
:101A6000548852BE99A8EA23C732255DE3E264C8D0
:101A7000AC4759851E58A2315BD2870779154010B3
:101A80005C40E719C69872131FFC0AF6E2293B3C3A
:101A9000508993B8C624B31315EA34699A83478DE5
:101AA000122CF7C0548CF464C4B1652FAE08626781
:101AB000459A2C4EF6C464A66F81110E76827A5038
:101AC000C2E086E18B14406D253DD2724166F41A66
:101AD00080DDAD01CEC072FF4A0CECB1265ABE0AC1
:101AE0003C0682B8C1E0772B2C4F881BFFAD5B37DB
:101AF00063C9192ECC3E31B142B6873D0B74A5B1F6
:101B000029AE420D316B3C3C69D3E6D49E35B28898
:101B100080C308C3155460570E2548D0582EA0E145
:101B2000431C48E41187122728214510CB1CE6836B
:101B3000280968308240B2DC20C3877BF0008E35F4
:101B40003C8957DC2E6529B5E00C17D0C3CC1E6943
:101B5000C8B20718300491862EE3D0D4C317E1F839
:101B600011D41A4E7CE3CB19D5C12002348845A488
:101B7000E2627691E5504C63E990DE1EABE8C2105C
:101B800028C4B841411C03E933033D36C430543CFA
:101B900060800901163800729386C431B3CB983344
:101BA000B828931EF3E8408F073FA4F1833ABBA007
:101BB00081060419CDC44C183A58F189427B8892A9
:101BC000CA1A165041C9024D0DE541A561A9C89038
:101BD00043338C999A4C33E880820E3DC4C1431A3A
:101BE000C04030831E2D2AA4CF1863A4FFB75065D0
:101BF0000D0C218AA598FA55D4813941245146AB60
:101C0000BAA0C70C103183DE1866CCE0C31EF5F015
:101C100022CD11174849E82E28D0A083B2027D2199
:101C2000E7108DC926D01339E440C12FBDF4C2039B
:101C30000FBD5C615193999664D2AC16B8B8063961
:101C40004A045565AC4B141A2A0D28C83A8209E09B
:101C500014E042034A39A4070DD62ACB123DBB58E3
:101C6000905F1C259C22317770F4D15B0D0CC8A3CA
:101C70000434BCAE28680F1E98C0801D3988A503A7
:101C80003E63EC62590F7AB04143B2173591062991
:101C90009D82A5EA186CB0A103A113892200173117
:101CA000FCF28F09264C22C3370C9450C209CF5442
:101CB000F08D0C4E5CAA580F0D5CEB81060C7CD3AA
:101CC000C408CC1C8C8FAC02517B0D1B2E2C6B825C
:101CD0002E9490D080B210B8D005D910AC714209C2
:101CE0007648B10AD12A301084040BE4FFD0D4A581
:101CF000CBA85542AE0799966243C6C62A0E126F0C
:101D00009CC2C00AA2F4A0030DD152596DBF0A2D86
:101D1000D307283D84A18749A136E3890826B4E189
:101D2000B40C7420D1440923EC51B24039C09487DB
:101D300006CB3CD1B152A60D176A18BF30D01D0892
:101D40000C244006A26390AA500FF3B08142315F89
:101D5000DC8805362E44BB0B04E8B8E2471AC754AA
:101D6000E0CC1B5238E137EC3E4800480E4FA4E26D
:101D700084133780F0A179ECCBD5353DCBBC914BAA
:101D80001332DC50030CD534836C1875CE30060A40
:101D90005D400437F6D18D4510010544A859144C17
:101DA00050030EA44F162CA9140B72500206884043
:101DB000044E3881330CE08486E00E2A24E1084288
:101DC0003CE08B249CC00E46A8431D9C2185699451
:101DD0000105A35A153EF0318F0FECE0159A700102
:101DE0000ACCB00917B8C00ABAF00207FF7C211B61
:101DF00086E8431F66094A0264E08B4904C109D0A2
:101E000050C61BF24014111AEE2C09220FFB184287
:101E1000C25878C00E78C88C116A008E0FC0900628
:101E20003EC407D91AD00017E8A00B3A48473A7CBD
:101E300048050D702009CF48CABBF471821C38C117
:101E4000084678437B4E61249A20D124FAD848FB77
:101E50000AE710342CA14553AA8C0F40F0060F8CD2
:101E6000E014F270021DE8F08B4DD04079FCD2C135
:101E7000180E88337E61821D17B8800BB800831A54
:101E8000DC200F4E2148504EA18CA6C923014F38AB
:101E90000512A4B0873D40A0609DFAE0BB42529776
:101EA000B158A0667799513D6490836738E109275E
:101EB000A807039E300314E42C673BC4070CABA5B2
:101EC0000062D8005A17988506267183A80D44141D
:101ED0001EF8452F39500723C0E109B2C08306FE22
:101EE0008380638E490F7AC0DD1511C2FF297A8481
:101EF000C105C1F481246AF006273C4362807186E3
:101F000012D0300684CD430B08DBA116D6F6881715
:101F1000ECE20FC9B80015606084249CE2757CF285
:101F2000012A24F0846FDC4005E1F041050C009AA1
:101F30004E4C010D7AB88095EAB44F84D08541FFAC
:101F40000CC31198010D5DD0216B1500242041A018
:101F50008F22204C0B3A80C53568100A0C4060096E
:101F60007C2880373A90810B58A11E4988453EA2B3
:101F700021100FF0C2032718800C2A90490F38A1B6
:101F800002F618C11780F08919144158F9ACE91507
:101F9000E95297198421A716A806277E00877A8020
:101FA00060121DB5C70022514D7EB141A9D9180656
:101FB0003240A1CA5700A103FFB4422E62118B6FB9
:101FC000FC4257E1585A1B9CD1CE11780006373895
:101FD000C508124108CF5DA02C1DF30AA766508CDE
:101FE000B736205FAAE0C50A72D90606FF2C0307A0
:101FF000106828C23E890205B8410E79AAC2213470
:1020000031042B4C401EECAC000C9A72821AE0C1D9
:102010001E49E0802C7290877A482007EA08C405A0
:1020200088C02ABEA4762454D321BF66600A4E68B5
:10203000A08F1319411052310F84B94C793CDC0444
:102040000A2E0000282CE1132C18400DEC710A0E0A
:10205000D001126D194103EB908F53E8E71B1A3042
:102060008505B4318B19348050486457086B2216AB
:102070001D62530F8BE0453D1200030D98E0061AD8
:1020800060C419D9900D0530620C214081223220A4
:102090000A04104003F2E0C113F670472910C80784
:1020A00025AC03123C9003112001104B284532D07F
:1020B000400F6C39A95735A98B1E44F93F2DB0E06C
:1020C0001FE7BA813D8CA0014FBCB1A10AB8051031
:1020D00044E5802D14000109C81A0FFC068D3A70E2
:1020E000A00DCBC8CB08DEF08D1FF8E0FF0470C058
:1020F000823E10108C3FCCC92CBFC249311364A75B
:1021000005A1210C0D1DC33460008D11E4E1191CE3
:1021100060802B8E8033366C421B6E38990EF840EF
:102120008D6EBCA10E99F44B7F2B5081492C43201E
:102130002774C21A4E918639D0830C31F8E5948EFB
:10214000639961F2A4AE7AF0215C83C9978CF44064
:102150008745B00001E8600006C8C00B37B004092D
:10216000C6B0011816A108CA23822658A0012F5410
:1021700040064D0141054EF10C6518E1097939C160
:102180001EE220054BC8940B7160096382256B80A9
:10219000B6C8206389B50ED66D251F0EEB215542BA
:1021A0004118D001C65334C117CAD0001926B7CD83
:1021B0006A8D610813F8C70D8C70837AC404937913
:1021C000F0C029BC00870F11A90248E8861B4950BE
:1021D000A839A14754302CDE4C550692BAA247A626
:1021E000FFDBA6B004E5C644D5A30227FF78422E44
:1021F00083E0075B880A61D74041034091854938F5
:1022000041060C90004656C0809239C10E0380836F
:10221000044E504229B4020DE6466AC8ADC9AF7EED
:10222000D19AD58BD9C592FFE7B25115001455A0AC
:102230004218A24501248416786F5041303491BC75
:102240004F86210322C80533E9D07096F080013E05
:1022500070020372210F0D489303F908823AF4F0DB
:10226000562DB82CA219B792CA3A7298621A2E4A01
:102270003EFCDF2640A18B6F1800061318C20F83A7
:102280002182139CC009A778830940D1003398A10B
:102290000136C0813C7A7E02242460220A69420D04
:1022A000F2F086DB1881013078C06B808006141450
:1022B0009BE963D31304549D90E9107E2837ED14F5
:1022C0003E3310440766E1161D903C1370B08CF34A
:1022D000D9A30EDF78C092B5400254E4CD0E3EC8BB
:1022E000836D87F46623B4C108CA504BFF34CEF027
:1022F000052E246214465543D361A8837C1EB9F78A
:1023000014B609441620056704211243D804263266
:10231000E1823088E00D356004B1500715D00247E6
:10232000A005CD0005AEF44E60953ECB22104E9038
:1023300004AFA7019CC0046E842C3B84026AA07E7B
:102340006C300F00056FB5761C8B444C5D55020652
:10235000F00DD6F00963D00505900CC5C30274904A
:102360005C3710045070042E20000FE034BC503253
:10237000CF504E2C8119CE20031A100956E002A32B
:10238000244A0E400465C70663D05D266117217894
:10239000134F982065911A392005747002CCE046DD
:1023A0007AB00528300F5490061CC001414000C18E
:1023B000E0096130042C10806D700502110DF210DF
:1023C0001E6F960B8EA701FE600143300416F005C8
:1023D00058070F5530072FB06E71C567C894450771
:1023E000B12951126BB2166BEFA60F3FFFF00051EF
:1023F000B0062C430F170043178009C6B00AAEC0C1
:1024000004477057F0500FCEC600921014271004E6
:10241000E1B1070C940B300004BB30048E300BDBB1
:1024200060092D000531C00D3B800165E04364115A
:102430006BE4D66E35232FB36117890743D8840226
:102440001AF70EF8C404B4800355F00AD4400F669E
:10245000604DD970017AA0050EE0437F4000FBF586
:102460000C0CB03EE2304F7B400E6D703F36A00545
:10247000324702F1D00FD2F04B431053EDD0083069
:10248000940DDB244AD6D46F822825FAB0327352D9
:1024900072FF1372B0320FEFF05668A00A62300D6F
:1024A00050E006EE200821C0064B055F0E400F5796
:1024B000006398D70403E10162C0340C3009263070
:1024C0000D618002D7D00829B00DDB9008114008BB
:1024D00018F00276150A34700D631351F3308FC56E
:1024E000E36E75A24FC621131EA76E2EFF300A5C45
:1024F0009001243002D0B007E880005C700EEFB08D
:102500005BECE702549091E190030C700A2BE1031D
:10251000236007DC0103557004F3A05421100A8ED8
:10252000800D0AA0003B0004B7500DD41006111511
:1025300072EBE643107006595430E4D167ECB25A9E
:10254000BB7006E8000485200442C00EB5707E0D05
:10255000A000D5E232D9E00068400937F0067EA33A
:102560000125E02D130102CEA00B643004A2F25E1F
:1025700028E000A23206D4B00722F000AEA009FF86
:10258000A3038C6025C35227BC225785D23EC6B216
:10259000643A009007B04D1BA8063A600A41C0009B
:1025A0001D541D2B401388760CADD000F3C808C510
:1025B000A003D10843F300013EF5005CB02AB4D675
:1025C0006ABB7214EF328573827128803263E00037
:1025D0005A80622BA903A8603F9EE503D6600D2CAC
:1025E000C16D521009D4A0038610023AFFD00083B7
:1025F000F008805609A1E002CDC00537E00CBC50C0
:102600000D9AF04F52929C6FF27E62217C53C774F8
:102610009F94624470572FB00548450541E00C6B0C
:10262000418A127011710003588009F255049770A5
:10263000077C70048330086C94026E200D68E20CF5
:102640001C000E5CC09C1BD767FB04273E122CB0FD
:1026500072462C09780170070DE008B540089A8091
:1026600006FBC01F70311080C0102BC00B3BA003B5
:102670000CD95B0DA009D4400888E0438F2004E00A
:10268000F000AC700C11870D2FD7749E39937CE647
:102690006A06D210AB428F7F8730AB39365FD808DD
:1026A00082300354C00E29000114900653664E7EFA
:1026B000F103790009BA400B461502C56606E7101A
:1026C0000819D0000E608C45700EA42004DB0004B5
:1026D000F0C007A2C45BD79471C2F28B0F512C10CB
:1026E0009148108074F4684DD854A5CAFF13995AC4
:1026F000C00F2F600119400567300E41E00B20E04C
:10270000260371025260027EB0049713029FC40830
:102710001850008CC090A1D400CDA009C5109DA276
:1027200062064B578CC5430F45B61753723C63D1B5
:1027300029E5B6AB8AB86EB1F272A3D20E83D05A35
:102740006860030F009B4A900A04610D52A002E5E5
:10275000582D9FE45E29664DD7A07E19D76FB10230
:1027600050FF5472ED065045466B2E524CF8F999C5
:102770002CC26751122CD06A060AA0085F3803B732
:10278000700F69160D5130246B900548D00A33E064
:10279000002E93628CBA5BBBF57763A33C3345167E
:1027A00064C122065BB0E69A104FFA7B95A12AB865
:1027B000E95E9F045FD4700830F03D94E21769D061
:1027C0000750F0078F3943A5C4061BA04DD0BAA807
:1027D00011BB4DB1029AC168AE1F849C76C1502EC8
:1027E000D3922B490363400204F00F39FFC010CA93
:1027F000FA044D8004E390018FA93C0E100AF258B0
:102800003CC852A5C49833FECA842E901A2C411E8F
:10281000FB14852171713BE45EDBB4545DC005FFA0
:10282000E0210201087B700A35F00F0250890EB9D1
:1028300005ED503C8C60016DB492277A4D55BA5429
:10284000A1542720444C35251675B5A48D8A02481D
:10285000358FA2D0071A400E7E210BA7500174D0ED
:102860000F9FA007DB64065AF00181580689900883
:10287000091902D5EAB68ADAA848FBB66E591A0CCD
:10288000B2A4F3286BBC399E9E200A0F1004BAF044
:102890001F7B6007410003A6600547D0005A500423
:1028A0005A60577A500A836092C3700707B001924A
:1028B000DBA89EE943C4382A7AC0335CC12916C616
:1028C000A432397563400FD360090B800A22A0013E
:1028D000ABA00141A00238A00A56300A1D8009A50C
:1028E000800B811008C26001B630079BFFC03F61BA
:1028F000A008FA1AADEE355376B164EC17060C73E6
:10290000B922713CFBE8ABED370384A264938346A4
:10291000C4A7020970023F000641500352A00BB346
:102920003004D8200758D00DD5800E3640005920ED
:10293000068E3906F3D000D4E008CDB0A41B38369B
:102940004BCB1173D2AB9BE9BE08611273B2BA9E36
:10295000F36E3121893A34364370080C600F93F0DE
:102960004E15A20B3C0004BB790168F00A584009DF
:10297000A27006E5800441500D4790873B2007B3C5
:102980004005CD608E6A6BADEE371D240A43BB90C7
:102990008F245817BBF04890F47BB7467544C009A4
:1029A00074900449307AB9500271200D4BF0B03B5D
:1029B00074019E6009FD6001DE700F356002120037
:1029C000038700045CE006A4B0036E554A1C182B74
:1029D0008D216E1627252B0B25097B129BA20754F0
:1029E000370647700FD3366568C5002DFF400AC50E
:1029F0003006864003EAF76F58E00F5A500C5870C3
:102A0000313040069F8006474005A3700E6DF49C50
:102A10008A6A8C60831805934573FB84E56138C727
:102A200052752E500DB081076F9004D0170462507C
:102A30000D7C29AA6AC00666500642600EF3500457
:102A4000509005FFE007737001FDA8030A800B5A40
:102A5000F0BA52AB3C275B388637B72004A515D6B1
:102A600097A3A20F50100E7B40076F606D82F40495
:102A7000AE20B44C47625B900C9A39067F300DD380
:102A800040022EC0061BB801C5B305F3300F058BFD
:102A90001EC488C7B36293D40C5E868B304DD803B6
:102AA0007B00035310050C800778C000F51007E188
:102AB000800C5A20B208830F26265EEB8628D5B2FA
:102AC0008156A20507E4BB4AB10B160643005538F0
:102AD0005CC1112CF39801BD06D010046B100CBA28
:102AE000F00CCFA0017DF0040450053AFF340F63D1
:102AF000000B4C5A76FCF23FB8AB7E0055350B39D3
:102B00002A322175186725501B17753BB0D4B107C1
:102B10002500061E700B38E0044AF00F22E00F4239
:102B2000500045102B7E8730B06A06FE6A25D08A99
:102B300002ACE2D1A23A2AB596B9BE4B2C89F184F7
:102B400081B26E1C87A084260A9680034F1004F57C
:102B50008003E610A76EE44366507579E29166E75C
:102B60004639830F5A501668A0A321902CBEE20369
:102B70001E2D4AD7E2C146E1104B8006333914714D
:102B8000300ED3F005CCD60B2340079B470265F0EF
:102B900056FCA343F8C02FBC0BD033B0042EE0D5B5
:102BA0004C3893539727D8C21252D77FAC62CD913D
:102BB000FD15054328F00109FD00018BE061DA668F
:102BC0000074E00A0D60D3816A8455D729A5840278
:102BD0007B81061025B371B59C9D9BC752FA745D2D
:102BE00031850F211067200E9DC01423FFF003C70D
:102BF00040447150034850051DD9842CA20766A09B
:102C0000463AF048EFBC546160302E132B4A8144A1
:102C10004BA63CA55C104784D4D3FC141731243C4C
:102C20009037A2164D3FC0B13034938006D24A711E
:102C3000C268548538D32F8DC1D83A1443DE15A508
:102C40002AE2DF1E000874200527B00623600C3F2F
:102C5000F005466806C6C332FF330F71E53F9F9407
:102C60001EC2588F46662C46A805DD75384F4210A7
:102C70007B4001F780041DC4D4E1800EBBA0039209
:102C80003988D5E474A06361B262173A2AD61DC1AF
:102C9000206D04B7351E165293037E000E38D0E126
:102CA0001ED0099D90119D778D8337163014062A0A
:102CB000D3E2017D1163012BA59C2074F2D671AB88
:102CC000221E200B7E80050B00271040D4F6DC036B
:102CD000F958C5CC7DCAFE43DF54B2D7114ED26835
:102CE000102FF087143671184FC00238FFC00253FE
:102CF000C0109D10034C026BFC03152C332A830774
:102D00002CA252CA30CE3F7866933DB07B471D1748
:102D100013C1457BF0043F4000E2D055CBC23119CE
:102D200031279A3E1B52573CB55617BC59DBC13769
:102D30002C6ACE11B4F1E43ED009E56009BF603BD6
:102D400098E2236301E6676DE2F9FDE3FAACC4455E
:102D500006A28562DB5DF1117EA10AC0002636E184
:102D6000DF436130C3A2107441D4F97D6BEDA71429
:102D70007A1C4C27D1CF5D51E8FF2D132AC1124890
:102D8000B40BCBAEEDB6C68827C1321FB820B91A36
:102D9000E1BADE2487E12D625138BB70049F226EB8
:102DA000C4198230AED6297B17F70E12F25738AA13
:102DB000B26A4941D94636D468A0323481DD078FE2
:102DC000D40A5210B91A8575A548F4CEF0153FD231
:102DD0007E0CB586C86ACEFEF17171F1186F12DFF4
:102DE00065F289E1F1EE52F22CAF222E07DF17E4F3
:102DF000AE180101003B25454E44485454502F3134
:102E00002E302032303020446F63756D656E742033
:102E1000666F6C6C6F77730D0A5365727665723AE4
:102E2000204156525F536D616C6C5F5765627365EC
:102E3000727665720D0A436F6E74656E742D5479E7
:102E400070653A20746578742F68746D6C0D0A0D86
:102E50000A00485454502F312E3020323030204454
:102E60006F63756D656E7420666F6C6C6F77730D34
:102E70000A5365727665723A204156525F536D610E
:102E80006C6C5F5765627365727665720D0A436F8D
:102E90006E74656E742D547970653A20696D616742
:102EA000652F6A70670D0A0D0A00485454502F317F
:102EB0002E302034303120556E617574686F726920
:102EC0007A65640D0A5365727665723A20415652EE
:102ED0005F536D616C6C5F57656273657276657286
:102EE0000D0A5757572D41757468656E7469636193
:102EF00074653A204261736963207265616C6D3D4F
:102F0000224E65656450617373776F7264220D0A97
:102F1000436F6E74656E742D547970653A207465D4
:102F200078742F68746D6C0D0A0D0A0034303120EE
:102F3000556E617574686F72697A656425454E4493
:102F4000006C65646F66662E676966006C65646F09
:102F50006E2E676966000000636865636B656400D8
:102F600025732C20257300504F5354005374617205
:102F7000742054656C6E6574205365727665723A80
:102F80000D0A00D9000AFA00000000000104000048
:102F90000000000000000000000000000000000031
:102FA0000000000000000000000000C7D6AC72085E
:102FB000000000536F004D6F004469004D690044EC
:102FC0006F004672005361002532753A2530327524
:102FD0003A25303275002025752E253032752E2584
:102FE0003034750025732C202573002A2A204C4389
:102FF000442044415441204745542042797465732C
:103000003A202569202A2A0D0A00474554202F67B7
:103010006C6F62616C776561746865722E61736D47
:10302000782F476574576561746865723F436974AA
:10303000794E616D653D5061646572626F726E2696
:10304000436F756E7472794E616D653D4765726D43
:10305000616E7920485454502F312E310D0A486F3B
:1030600073743A207777772E776562736572766925
:103070006365782E6E65740D0A4B6565702D416C25
:103080006976653A203330300D0A436F6E6E6563A2
:1030900074696F6E3A204B6565702D416C69766579
:1030A0000D0A0D0A000D0A0D0A0D0A446174656EC1
:1030B00020416E666F726465726E0D0A0054435053
:1030C0002045696E7472616720676566756E646518
:1030D0006E2028485454505F434C49454E54292192
:1030E0000D0A005443502045696E74726167206E6A
:1030F0006963687420676566756E64656E2028482C
:103100005454505F434C49454E5429210D0A004107
:10311000525020526571756573740A0D0025630065
:1031200011241FBECFEFD0E1DEBFCDBF12E0A0E083
:10313000B1E0E8EBFAE702C005900D92AA35B107BD
:10314000D9F718E0AAE5B2E001C01D92A23DB1078F
:10315000E1F70E94AF180C945B3D0C940000CFEF98
:10316000D0E1DEBFCDBF87E081B917B81AB860E8FB
:1031700075E280E090E00E94BE1982E591E09F93A5
:103180008F930E94831A8AE291E09F938F930E940B
:10319000831A81EF90E09F938F930E94831A80E0BF
:1031A00090E0A0E0B0E02DB73EB72A5F3F4F0FB6EA
:1031B000F8943EBF0FBE2DBF00000196A11DB11DAA
:1031C000803432E493073FE0A30730E0B307A1F770
:1031D0000E94D3240E9455320E94AB33EA9A78941D
:1031E00060918407772740918307552720918207B4
:1031F00033278091810799277F936F935F934F9334
:103200003F932F939F938F9388ED90E09F938F939D
:103210000E94831A60918C07772740918B0755276E
:1032200020918A0733278091890799277F936F938D
:103230005F934F933F932F939F938F9381EC90E0F5
:103240009F938F930E94831A6091880777274091FC
:10325000870755272091860733278091850799276F
:103260007F936F935F934F933F932F939F938F938E
:103270008AEA90E09F938F930E94831A0E94EF3511
:103280000E94CA352DB73EB7225E3F4F0FB6F89465
:103290003EBF0FBE2DBF882349F08FE990E09F937A
:1032A0008F930E94831A0F900F9002C00E94752680
:1032B0002CE9A22E20E0B22E9BE1C92E98E0D92E57
:1032C00088E8E82E80E0F82E02E910E0C0E7D0E0C0
:1032D0000E94DC2380918D0780FF19C0BF92AF92BE
:1032E0000E94831AC6010E944A2A0F900F908823D9
:1032F00019F01F930F9302C0FF92EF920E94831A5E
:103300000F900F9080918D078E7F80938D07809115
:10331000570290915802892B41F484E794E09093EE
:103320005802809357020E9498350E946232809121
:103330005808882369F2609156087727409155080C
:1033400055272091540833278091530899277F935C
:103350006F935F934F933F932F939F938F93DF933D
:10336000CF930E94831A109258088DB79EB70A9681
:103370000FB6F8949EBF0FBE8DBFAACF9B01AC01C4
:1033800088E98093C10084E0220F331F441F551F3A
:103390008A95D1F760E070E081EE90E00E94C43C35
:1033A00021502093C40080918D078B7F80938D07DF
:1033B0000895982F80918D0782FD06C08091C000EE
:1033C00085FFFCCF9093C6000895CF93DF93EC0167
:1033D00003C021960E94D91988818823D1F7DF91F3
:1033E000CF9108951F920F920FB60F9211241F9341
:1033F0002F933F934F935F936F937F938F939F93FD
:10340000AF93BF93EF93FF9380918D0782FD4CC0E4
:103410001091C600812F0E94D91980918D0780FFDD
:1034200004C080918D07826028C0183069F48091B3
:103430005A0290915B02892B09F453C080915A0281
:1034400090915B0201972BC01D30D1F4E0915A029C
:10345000F0915B02E65EF74F80818C3589F0E09158
:103460005A02F0915B02E55EF74F108210925B0208
:1034700010925A0280918D07816080938D0731C030
:1034800080915A0290915B02C19758F580915A023F
:1034900090915B02FC01E55EF74F108301969093DB
:1034A0005B0280935A021DC02091000130910101FE
:1034B000809102019091030101972817390789F043
:1034C0008091C600F9018193F0930101E09300011E
:1034D000EC54F84031F420533040309301012093F4
:1034E0000001FF91EF91BF91AF919F918F917F91DB
:1034F0006F915F914F913F912F911F910F900FBE50
:103500000F901F9018959F92AF92BF92CF92DF922B
:10351000EF92FF920F931F93CF93DF93CDB7DEB758
:1035200066970FB6F894DEBF0FBECDBFFE01B4960E
:10353000E190F190FA83E983992423E0A22EB12C43
:10354000AC0EBD1E9DE0C92ED12CCC0EDD1EF701A8
:103550008491882309F48AC00894E11CF11C853207
:1035600009F081C0F7010894E11CF11C2491822F1D
:103570009927C0970A9710F0822F0BC02D871E86BF
:10358000C6010E948638982EF7010894E11CF11CB0
:103590008491893661F18A3628F48236F1F08336D7
:1035A000B1F61DC0833741F0883721F08F3679F6A8
:1035B00048E01EC040E11CC0E981FA813296FA83DE
:1035C000E9831291029104C00F5F1F4F0E94D91925
:1035D000F80180818823C1F7BACF42E009C0E981B0
:1035E000FA813296FA83E983329780813CC04AE0BF
:1035F000E981FA813296FA83E9835527B5019291E0
:1036000082910E94703920E030E0F501E20FF31F53
:1036100080812F5F3F4F8823C1F721503040892D93
:10362000992728173907D4F4921AA0E0B0E0292D81
:10363000332705C0EA0FFB1F80E380831196F60154
:10364000A217B307B9F7AC0DBD1D1C92B501C60199
:103650000E943B39B601C5010E944639C5010E944E
:10366000E519992474CF0E94D91971CF66960FB6C7
:10367000F894DEBF0FBECDBFDF91CF911F910F91A8
:10368000FF90EF90DF90CF90BF90AF909F90089504
:10369000292F382FC9010895EF92FF920F931F939E
:1036A0007B018C01607070709070672F782F892F6C
:1036B0009927212F332744275527620F731F841F13
:1036C000951FA8019701207040705070542F432F10
:1036D000322F2227620F731F841F951F1E2D002774
:1036E000FF24EE246E0D7F1D801F911F1F910F91EF
:1036F000FF90EF900895EF92FF920F931F93CF9357
:10370000DF93CDB7DEB724970FB6F894DEBF0FBEB8
:10371000CDBF8C019A01AB0160E07E010894E11CF1
:10372000F11CF999FECFE62FFF27DF01A00FB11F93
:103730000E94EE3C802DEE0DFF1D80836F5F643094
:1037400080F369817A818B819C816F3FEFEF7E07E7
:10375000EFEF8E07EFEF9E0711F4CA01B90124962F
:103760000FB6F894DEBF0FBECDBFDF91CF911F9192
:103770000F91FF90EF90089520E030E0F901EE0FF7
:10378000FF1FE20FF31FEE0FFF1FEE0FFF1FEE5B99
:10379000F84F82859385892B59F410821182128209
:1037A000138214821582168217821086118605C034
:1037B000828593850197938782872F5F3F4F2530BE
:1037C0003105E1F60895DC0120E030E0422FE22FE0
:1037D000FF272F5F3F4FEE0FFF1FEE0FFF1FE45A33
:1037E000FD4F80819181892B89F7453020F4B18389
:1037F000A08373836283089540E050E0A42FE42FF8
:10380000FF27EE0FFF1FEE0FFF1FE45AFD4F208131
:1038100031812115310529F04F5F5F4F2817390796
:1038200069F7A53010F4718360830895DC0120E00E
:1038300030E0422FE22FFF272F5F3F4FEE0FFF1F99
:10384000EE0FFF1FE059FD4F80819181892B89F791
:10385000453020F4B183A0837383628308959C0173
:10386000E0E7F2E0808191818217930711F41182E1
:103870001082349682E0E438F807A1F708951F9289
:103880000F920FB60F9211248F9380918007816061
:10389000809380071092150810921408EA988F916F
:1038A0000F900FBE0F901F901895CF93DF93C0918C
:1038B0009D02D0919E0260E070E086E0C830D8079B
:1038C000C1F4FB01EE0FFF1FE60FF71FEE0FFF1F06
:1038D000EE0FFF1FEE5BF84F268137814085518543
:1038E0008091AD029091AE02A091AF02B091B00272
:1038F0001AC0C830D105E9F4FB01EE0FFF1FE60F37
:10390000F71FEE0FFF1FEE0FFF1FEE5BF84F268134
:103910003781408551858091AB029091AC02A09196
:10392000AD02B091AE02281739074A075B0709F4C8
:103930005BC06F5F7F4F6530710509F0BECF20E03F
:1039400030E0F901EE0FFF1FE20FF31FEE0FFF1F34
:10395000EE0FFF1FEE5BF84F86819781A085B18542
:103960000097A105B10509F044C086E0C830D8072A
:10397000D9F480919702808380919802818380910D
:103980009902828380919A02838380919B0284832F
:1039900080919C0285838091AD029091AE02A091AE
:1039A000AF02B091B0021CC0289749F580919702F0
:1039B0008083809198028183809199028283809193
:1039C0009A02838380919B02848380919C028583E9
:1039D0008091AB029091AC02A091AD02B091AE0289
:1039E00086839783A087B18784E690E09387828758
:1039F00006C02F5F3F4F2530310509F0A2CFDF9180
:103A0000CF910895AB01BC0180E090E09C01FC01E6
:103A1000EE0FFF1FE80FF91FEE0FFF1FEE0FFF1F46
:103A2000EE5BF84F86819781A085B1858417950755
:103A3000A607B70739F0C90101968530910531F71E
:103A400025E030E0C9010895CF93DF93EC01CB016D
:103A5000BA010E94021D853009F1DE0140E050E00C
:103A600099279C01220F331F280F391F220F331F64
:103A7000220F331FF901E40FF51FEE5BF84F808131
:103A80008C93FA01E35BF74F8081FD0186834F5FE2
:103A90005F4F11964630510569F0ECCFADE4B8E0C8
:103AA000FE018FEF80838D918683319688E0A33568
:103AB000B807B9F7DF91CF910895EF92FF920F9376
:103AC0001F93FC0179018A0110C080812181329607
:103AD0009927982F8827820F911DAA27BB27E80EC8
:103AE000F91E0A1F1B1F625070406230710568F793
:103AF000672B51F080819927982F8827AA27BB2709
:103B0000E80EF91E0A1F1B1F9801442755278FEF47
:103B10009FEFA0E0B0E0E822F9220A231B232E0D3C
:103B20003F1D401F511FCA01AA27BB27407050707C
:103B3000820F931FA41FB51F809590951F910F9121
:103B4000FF90EF9008956F927F928F929F92AF9225
:103B5000BF92CF92DF92EF92FF920F931F936C016F
:103B60003A014B018C01025F1F4F0E94241D88E027
:103B700090E0F60195878487209184023091850238
:103B80002F5F3F4F309385022093840280E490E0C2
:103B9000F8019783868380E88087E32EF22EF582F2
:103BA000E48285E4F6018687F8011182608A718AD1
:103BB000828A938A8091810790918207A0918307DE
:103BC000B091840784879587A687B7871386128666
:103BD00020E030E040E050E064E170E0C8010E9485
:103BE0005D1DA92EB82EF801B386A2861F910F91F4
:103BF000FF90EF90DF90CF90BF90AF909F908F900D
:103C00007F906F900895CF92DF92EF92FF920F9383
:103C10001F93CF93DF93AC014E5D5F4F8C01025F2A
:103C20001F4FE801CC84DD84EE84FF84E0E0F0E007
:103C300086E190E0E89FE001E99FD00DF89FD00D6C
:103C40001124C157D84F88819981AA81BB818C15D5
:103C50009D05AE05BF0509F046C02C813D81DA0106
:103C60008D919C9128173907F1F5FA01808591858E
:103C7000A285B38588879987AA87BB878481958128
:103C8000A681B7818C879D87AE87BF878585888B06
:103C90008B898F3F11F083E08B8BF80163817281F8
:103CA000FA0184859927807F9070959587959595E1
:103CB0008795681B790B645170407B0100271127A1
:103CC0006C857D858E859F850E944C1BE60EF71EB8
:103CD000081F191FC801B7010E944C1B6C877D8704
:103CE0008E879F874DC03196E530F10509F0A0CF52
:103CF00020E030E086E190E0289FB001299F700D20
:103D0000389F700D1124FB01E157F84F808191819C
:103D1000A281B3810097A105B10561F5C082D1826E
:103D2000E282F382DA018D919C9195838483EA018A
:103D30008A819B819783868388859985AA85BB859F
:103D400080879187A287B3878C819D81AE81BF8157
:103D500084879587A687B7878D85808B128A118A7D
:103D600083E0838B148AFB01EC55F84F80818E7FB2
:103D7000808306C02F5F3F4F2530310509F0BACF51
:103D8000DF91CF911F910F91FF90EF90DF90CF9037
:103D90000895EF92FF920F931F937B018C0180E0B7
:103DA00090E09C0186E190E0289FF001299FF00DB2
:103DB000389FF00D1124E157F84F80819181A28145
:103DC000B3818E159F05A007B10729F484819581E1
:103DD0008417950739F0C90101968530910509F7D7
:103DE00025E030E0C9011F910F91FF90EF900895F9
:103DF00040E050E0E42FFF27EE0FFF1FEE0FFF1F04
:103E0000E059FD4F80819181009771F04F5F5F4FC6
:103E10002091B6023091B5028217930759F70280BC
:103E2000F381E02D80E0099508950F931F93CF93C0
:103E3000DF93682F0CE512E0E0E0F0E0282F332755
:103E400086E190E0289FD001299FB00D389FB00DEA
:103E50001124A157B84FED018E819F81492F582F12
:103E6000E801888199818417950739F031960C5FB4
:103E70001F4FE630F10571F0EECFE53058F4EE0F4C
:103E8000FF1FEE0FFF1FE45AFD4F0280F381E02D6C
:103E9000862F0995DF91CF911F910F91089586305C
:103EA00038F5282F332786E190E0289FD001299FFD
:103EB000B00D389FB00D1124FD01E157F84F10826D
:103EC0001182128213821582148217821682108642
:103ED0001186128613861486158616861786108A12
:103EE000128A118A138AAC55B84F8C918E7F8C93AD
:103EF0000895AF92BF92CF92DF92EF92FF920F930D
:103F00001F93CF93DF938C01772786E190E0689F22
:103F1000E001699FD00D789FD00D1124C157D84F73
:103F20008E819F819093B4028093B3028C819D8196
:103F30009093B6028093B5021092C6021092C50209
:103F400084E09CE49093C2028093C10280E5809358
:103F5000BF026C857D858E859F850E944C1B9B01D1
:103F6000AC0188898093C002888981FF14C02F5FCB
:103F70003F4F4F4F5F4F82E08093C70284E08093B2
:103F8000C8028093C9028CE48093CA0280E68093C1
:103F9000BF0204E010E0CA01B9010E944C1B60930B
:103FA000BB027093BC028093BD029093BE028885D1
:103FB0009985AA85BB858093B7029093B802A09398
:103FC000B902B093BA02C8018896E92EF82EF09291
:103FD000A202E092A10286E08093A8024881598162
:103FE0006A817B8181E992E00E94A31D1092C40244
:103FF0001092C302C090A202D090A102B601685FE5
:104000007F4F80919F0299278F709070880F991F22
:10401000880F991F681B790B625070409B014427E1
:1040200055276E5F7F4F8BEA92E00E945D1DA92E9F
:10403000B82EB092C402A092C30261E972E0C80136
:10404000C6960E94AA2C188ADF91CF911F910F91DA
:10405000FF90EF90DF90CF90BF90AF9008958F9238
:104060009F92AF92BF92DF92EF92FF920F931F93B6
:10407000CF93DF937B018C015A014901EA9820E03C
:1040800030E0D22E86E190E0289FE001299FD00DFC
:10409000389FD00D1124C157D84F88819981AA81AA
:1040A000BB810097A105B105F1F4822F0E944F1F3B
:1040B000E882F9820A831B83BD82AC829F828E8252
:1040C00082ED94E0A0E0B0E088879987AA87BB875B
:1040D00089E299E0A0E0B0E08C879D87AE87BF873A
:1040E0008EE18B8B06C0D3942F5F3F4F2530310577
:1040F00041F62D2D332786E190E0289FF001299F7E
:10410000F00D389FF00D1124E157F84F82E0808BBD
:104110006D2D80E090E00E94791FEA9ADF91CF91A7
:104120001F910F91FF90EF90DF90BF90AF909F9005
:104130008F900895482F552726E130E0429FF001E7
:10414000439FF00D529FF00D1124E157F84F2FEFD0
:104150003FEF328B218B91E1908B682F80E090E0D4
:104160000E94791F0895FF920F931F93CF93DF93BF
:1041700020E030E0022F1127F801EE0FFF1FEE0FB5
:10418000FF1FE45AFD4F0190F081E02D309709F4B4
:1041900053C12F5F3F4F8091B6029091B502E8174F
:1041A000F90741F72091C002822F992781FF46C06D
:1041B00084FF44C081E992E00E94031E4091B30253
:1041C0005091B4026091AB027091AC028091AD024B
:1041D0009091AE020E94C91EF82E24E0281708F420
:1041E0002BC1282F332786E190E0289F8001299F4B
:1041F000100D389F100D11240157184F8EE1E80162
:104200008B8B6C857D858E859F850E944C1B6F5F97
:104210007F4F8F4F9F4F0E944C1BF801648775871B
:104220008687978780E1808B6F2D80E090E00E94E9
:10423000791F81E090E09A8B898BFEC0223051F586
:1042400081E992E00E94031E4091B3025091B402B2
:104250006091AB027091AC028091AD029091AE0280
:104260000E94C91E682F853008F0E6C0282F33272A
:1042700086E190E0289FF001299FF00D389FF00D16
:104280001124E157F84F82E1808B80E090E00E949A
:10429000791FD2C04091B3025091B4026091AB0239
:1042A0007091AC028091AD029091AE020E94C91E45
:1042B000F82EE4E0E81760F581E992E00E94031E21
:1042C0008091C002992780FD02C082FFB5C02F2DCA
:1042D000332786E190E0289FE001299FD00D389F89
:1042E000D00D1124C157D84F6C857D858E859F8553
:1042F0000E944C1B6F5F7F4F8F4F9F4F0E944C1B44
:104300006C877D878E879F87888980FF3EC036C0F7
:1043100081E992E00E94031E4F2D552786E190E02F
:10432000489FE001499FD00D589FD00D1124C157DF
:10433000D84F888980FD03C0888982FF2AC06C8598
:104340007D858E859F850E944C1B6F5F7F4F8F4FB1
:104350009F4F0E944C1B6C877D878E879F87888923
:1043600080FF13C0000F111F000F111F045A1D4FB3
:10437000F801228133818F2DF901099580E1888B25
:104380006F2D80E090E00E94791F8F2D0E944F1FBB
:1043900053C0888983FF0BC0888984FF08C089893E
:1043A0009A8901969A8B898B88E1888B3AC086E13D
:1043B00090E0489F9001499F300D589F300D112487
:1043C000F901E157F84F808984FF0AC0F901EC55E3
:1043D000F84F808180FD04C08081816080832CC083
:1043E00086E190E0489FF001499FF00D589FF00D45
:1043F0001124DF01A157B84FED01888984FF1CC04B
:10440000EC55F84F808180FF17C089899A898F5FAA
:104410009F4F91F080E1888B89899A8901969A8BC8
:10442000898B000F111F000F111F045A1D4FE80147
:10443000EA81FB818F2D0995DF91CF911F910F911B
:10444000FF900895CF93DF93C0E0D0E086E190E045
:10445000C89FF001C99FF00DD89FF00D1124E157BE
:10446000F84F8389882309F580819181A281B381E6
:104470000097A105B105F9F083E0838B84898F5FF4
:10448000848B8150863068F0EA9884E1808B6C2FB1
:1044900080E090E00E94791FEA9A8C2F0E944F1FC3
:1044A0000AC08C2F0E94151F06C083898F3F19F008
:1044B00083898150838B2196C530D10539F6DF91F0
:1044C000CF910895AF92BF92CF92DF92EF92FF9279
:1044D0000F931F934093B3022093B402F092B8025B
:1044E000E092B7021093BA020093B9021092B6029A
:1044F0001092B50220E034E53093A2022093A1028D
:1045000021E02093A80201E912E0AB01BC01C8013F
:104510000E94A31DC090A202D090A10280919F0290
:1045200099278F709070880F991F880F991FC81A4C
:10453000D90A20E030E040E050E0B60183EB92E0A1
:104540000E945D1DA92EB82EB092B602A092B502AF
:10455000B80182E690E00E94AA2C1F910F91FF9073
:10456000EF90DF90CF90BF90AF900895CF93DF93FF
:10457000CFE9D2E080919F029091A00280509140BB
:1045800009F099C08091A1029091A202089709F0C8
:1045900092C08091A302863009F08DC08091A40260
:1045A000843009F088C02091B7023091B802409160
:1045B000B9025091BA028091810790918207A0912F
:1045C0008307B0918407281739074A075B0709F06A
:1045D00072C08091A5029091A602E1E080309E0712
:1045E00009F064C00E94551C4091AD025091AE028A
:1045F0006091AF027091B002CE010E970E94241D0F
:1046000088E096E090939E0280939D026091AD02B7
:104610007091AE028091AF029091B0020E94021D93
:10462000853008F5DE0140E050E099279C01220F1B
:10463000331F280F391F220F331F220F331FF90199
:10464000E40FF51FEE5BF84F8081FD01828BFA01CC
:10465000E35BF74F8081FD0180874F5F5F4F1196CD
:104660004630510561F780E092E09F838E83809110
:10467000AD029091AE02A091AF02B091B002888FCE
:10468000998FAA8FBB8F8091810790918207A0910B
:104690008307B09184078E879F87A88BB98B61E9C8
:1046A00072E08CE390E00E94AA2C05C080509240FA
:1046B00011F40E94551CDF91CF910895EF92FF9263
:1046C0000F931F9380919D0290919E0226E0883067
:1046D000920719F40E94B6226AC0089709F067C0D1
:1046E0002091AF023091B0024091B1025091B202DC
:1046F0008091810790918207A0918307B0918407F0
:10470000281739074A075B0709F046C00E94551C65
:104710008091A8028130B9F58091B3028823C1F05D
:10472000883009F044C0E090B702F090B8020091E0
:10473000B9021091BA026091AB027091AC02809103
:10474000AD029091AE0220E040E00E9462222FC0B4
:1047500020915308309154084091550850915608C3
:104760008091AB029091AC02A091AD02B091AE02EB
:10477000281739074A075B07D1F4809158088160F0
:104780008093580814C0863011F40E94B3208091A1
:10479000A802813161F409C02F5F3F4F4F4F5F4F37
:1047A00031F48091A802813111F40E94F81E1F910A
:1047B0000F91FF90EF900895CF93DF938091800742
:1047C00081FF09C00E9422220E94BC1B80918007A9
:1047D0008D7F809380078091800780FD0DC016C07B
:1047E000BE0180EB94E00E941B2CFC01E257FD4FC0
:1047F00010820E945E2302C0C1E9D2E01A9BF0CF72
:10480000809180078E7F80938007EA9ADF91CF9115
:1048100008958F929F92AF92BF92CF92DF92EF92C4
:10482000FF920F931F93CF93DF93CDB7DEB7AA9775
:104830000FB6F894DEBF0FBECDBF4B015C011FE089
:10484000C12ED12CCC0EDD1E8091890790918A0754
:10485000A0918B07B0918C0785017401E822F922A1
:104860000A231B23209181073091820740918307FF
:104870005091840782239323A423B523E816F906D5
:104880000A071B0719F48501740108C0E090850729
:10489000F0908607009187071091880788E096E0DE
:1048A0009E878D87B801A701CE0101960E94241D25
:1048B0008091810790918207A0918307B09184072E
:1048C000F60186879787A08BB18BE08EF18E028FE1
:1048D000138FADE4B8E08D918087128A319628E07D
:1048E000A335B207C1F720E031E0F6013183208320
:1048F00088E090E09383828386E0848384E08583EC
:1049000037832683BE016F5F7F4F8AE290E00E946B
:10491000AA2CCC24C501B4010E94021DD82EC801C6
:10492000B7010E94021D853020F0F4E0FD15A8F0CB
:1049300025C024E02D1510F59927FC01EE0FFF1F6F
:10494000E80FF91FEE0FFF1FEE0FFF1FEE5BF84F92
:1049500086829782A086B18611C080E090E0000038
:104960000196E7E280319E07D1F70E94DC23C394D1
:10497000F4E1CF1679F680E090E002C081E090E0AB
:10498000AA960FB6F894DEBF0FBECDBFDF91CF91D0
:104990001F910F91FF90EF90DF90CF90BF90AF905D
:1049A0009F908F9008950F931F930E94A72540EC2E
:1049B00058EA60E073E68EE190E00E947B1B609312
:1049C00081077093820780938307909384074FEF4A
:1049D0005FEF6FEF70E082E290E00E947B1B6093DC
:1049E000890770938A0780938B0790938C0740EC1C
:1049F00058EA60E071E086E290E00E947B1B6093E1
:104A00008507709386078093870790938807109295
:104A10004D0880E280934E0888E180934F0881EB37
:104A20008093500885E1809351088FE68093520867
:104A30000E94F22C01E912E0B8018CE390E00E94A0
:104A4000AA2CB8018CE390E00E94AA2C1F910F9130
:104A500008954F925F926F927F928F929F92AF9242
:104A6000BF92CF92DF92EF92FF920F931F933C0180
:104A700093EB492E92E0592EE72FF62FF093B402D4
:104A8000E093B302A52FB42FB093B602A093B50262
:104A9000C3010896C92ED82ED092B802C092B70290
:104AA000C3014C96A92EB82EB092A202A092A102E8
:104AB00081E18093A8028EEDC82E8FEFD82EC40C12
:104AC000D51CB901A801C6010E94A31D1092BA020B
:104AD0001092B902E090A202F090A10288E090E06A
:104AE000E80EF91E80919F0299278F709070880FB1
:104AF000991F880F991FE81AF90A89E090E0E80EDB
:104B0000F91E97014427552787EF9FEFE80EF91EFE
:104B1000B701C20108970E945D1D892E982E9092C0
:104B2000BA028092B902B601C3018A960E94AA2CE9
:104B30001F910F91FF90EF90DF90CF90BF90AF90BB
:104B40009F908F907F906F905F904F900895E1E8D5
:104B5000F0E080818D608083109285001092840047
:104B60008FE398E39093890080938800EFE6F0E06C
:104B700080818260808308951F920F920FB60F92FA
:104B800011242F938F939F93AF93BF938091170816
:104B900090911808A0911908B0911A080196A11DCA
:104BA000B11D8093170890931808A0931908B0932B
:104BB0001A08809114089091150801969093150891
:104BC000809314080197815B944018F0E0E0F0E0D6
:104BD00009948091800782608093800780915702BA
:104BE0009091580201979093580280935702BF9179
:104BF000AF919F918F912F910F900FBE0F901F90AB
:104C00001895E0E0F0E009940895AC01809159080E
:104C100090915A08892BA1F020E0F999FECFA22F9C
:104C2000BB27FD01EE0FFF1FE75AF74F80819181EF
:104C3000A40FB51F082E0E94F63C2F5F243068F3A6
:104C40000895089540EC58EA60E073E68EE190E044
:104C50000E947B1B60938107709382078093830778
:104C6000909384074FEF5FEF6FEF70E082E290E088
:104C70000E947B1B6093890770938A0780938B0740
:104C800090938C0740EC58EA60E071E086E290E097
:104C90000E947B1B6093850770938607809387072C
:104CA000909388070895EF92FF921F93CF93DF931D
:104CB000C3E6D1E097EFE92E92E0F92EFE012196AE
:104CC0001491812F99279F938F93FF92EF920E94C7
:104CD000831A0F900F900F900F90112379F7DF91A7
:104CE000CF911F91FF90EF9008956F927F928F92D6
:104CF0009F92AF92BF92CF92DF92EF92FF920F936B
:104D00001F93609017087090180880901908909071
:104D10001A08E0901708F0901808009119081091EF
:104D20001A086091170870911808809119089091DD
:104D30001A082CE330E040E050E00E94C43C5B01E4
:104D40006C01BB24C801B7012CE330E040E050E027
:104D50000E94C43CCA01B9012CE330E040E050E0BD
:104D60000E94C43C7B018C01FF24C401B30120E1FB
:104D70003EE040E050E00E94C43CCA01B90128E195
:104D800030E040E050E00E94C43C7727BF92AF92F1
:104D9000FF92EF927F936F938AEF92E09F938F93AE
:104DA0000E94831A8DB79EB708960FB6F8949EBFDF
:104DB0000FBE8DBF1F910F91FF90EF90DF90CF90AE
:104DC000BF90AF909F908F907F906F900895E091EB
:104DD0005908F0915A0880915B0890915C082EE385
:104DE00032E0EE0FFF1FE20FF31F91838083E0910B
:104DF0005908F0915A08EE0FFF1FE20FF31F808150
:104E000091812091590830915A089F938F933F9335
:104E10002F9380E193E09F938F930E94831A8DB725
:104E20009EB706960FB6F8949EBF0FBE8DBF08952D
:104E30002F923F924F925F926F927F928F929F92AA
:104E4000AF92BF92CF92DF92EF92FF920F931F9398
:104E5000CF93DF93C0E0D0E091E6292E93E0392E86
:104E600088E5482E83E0582E03E5602E03E0702E7F
:104E70001EE4812E13E0912EB9E4AB2EB3E0BB2EDD
:104E8000AEE3CA2EA3E0DA2EF1E3EF2EF3E0FF2E1D
:104E9000DF93CF933F922F920E94831A86E190E096
:104EA000C89F8001C99F100DD89F100D1124015774
:104EB000184FF80180819181A281B3819070A07018
:104EC000B070BF93AF939F938F935F924F920E9466
:104ED000831AF80180819181A281B381892F99275A
:104EE000AA27BB27BF93AF939F938F937F926F9215
:104EF0000E94831AF80180819181A281B3818A2F57
:104F00009927AA27BB27BF93AF939F938F939F9215
:104F10008F920E94831AF80180819181A281B381CE
:104F20008B2F9927AA27BB27BF93AF939F938F936C
:104F3000BF92AF920E94831AF80124813581848147
:104F40009581892F9927322F2227822B932B9F938C
:104F50008F93DF92CF920E94831AF80183892DB735
:104F60003EB7205E3F4F0FB6F8943EBF0FBE2DBF39
:104F700099279F938F93FF92EF920E94831A219615
:104F80000F900F900F900F90C530D10509F080CF92
:104F9000DF91CF911F910F91FF90EF90DF90CF9015
:104FA000BF90AF909F908F907F906F905F904F9049
:104FB0003F902F9008952F923F924F925F926F9261
:104FC0007F928F929F92AF92BF92CF92DF92EF9299
:104FD000FF920F931F93CF93DF93C0E0D0E0BFE821
:104FE0002B2EB3E03B2EAAE84A2EA3E05A2EF1E87E
:104FF0006F2EF3E07F2EECE78E2EE3E09E2E77E718
:10500000A72E73E0B72E62E7C62E63E0D62E55E6D4
:10501000E52E53E0F52E8E01000F111F0C0F1D1F02
:10502000000F111F000F111F0E5B184FF801808138
:1050300099279F938F93DF93CF9323EA33E03F9396
:105040002F930E94831AF801818199279F938F9350
:105050002EE933E03F932F930E94831AF801828157
:1050600099279F938F9329E933E03F932F930E94D1
:10507000831AF801838199279F938F9324E933E062
:105080003F932F930E94831AF801848199279F935D
:105090008F933F922F920E94831AF801858199275E
:1050A0009F938F935F924F920E94831AF80186819B
:1050B0009781A085B1859070A070B070BF93AF93B9
:1050C0009F938F937F926F920E94831AF80186813B
:1050D0009781A085B1852DB73EB7205E3F4F0FB6B3
:1050E000F8943EBF0FBE2DBF892F9927AA27BB2753
:1050F000BF93AF939F938F939F928F920E94831A37
:10510000F80186819781A085B1858A2F9927AA27E2
:10511000BB27BF93AF939F938F93BF92AF920E9491
:10512000831AF80186819781A085B1858B2F9927F5
:10513000AA27BB27BF93AF939F938F93DF92CF9202
:105140000E94831AF801828593859F938F93FF9223
:10515000EF920E94831A21962DB73EB72A5E3F4FE9
:105160000FB6F8943EBF0FBE2DBFC530D10509F074
:1051700052CFDF91CF911F910F91FF90EF90DF9071
:10518000CF90BF90AF909F908F907F906F905F90E7
:105190004F903F902F90089580916D0899279F938D
:1051A0008F9380EB93E09F938F930E94831A0F90CD
:1051B0000F900F900F9008958091520899279F9318
:1051C0008F938091510899279F938F9380915008D6
:1051D00099279F938F9380914F0899279F938F933F
:1051E00080914E0899279F938F9380914D0899271E
:1051F0009F938F9388EC93E09F938F930E94831AE1
:105200008DB79EB70E960FB6F8949EBF0FBE8DBF9A
:10521000089586E290E00E94052640EC58EA60E09E
:1052200071E086E290E00E947B1B6093850770939B
:10523000860780938707909388078091880799272E
:105240009F938F938091870799279F938F93809146
:10525000860799279F938F938091850799279F931E
:105260008F938AEE93E09F938F930E94831A8DB75A
:105270009EB70A960FB6F8949EBF0FBE8DBF0895D5
:1052800082E290E00E9405264FEF5FEF6FEF70E043
:1052900082E290E00E947B1B6093890770938A07EB
:1052A00080938B0790938C0780918C0799279F930D
:1052B0008F9380918B0799279F938F9380918A0773
:1052C00099279F938F938091890799279F938F9315
:1052D00087E094E09F938F930E94831A8DB79EB7C7
:1052E0000A960FB6F8949EBF0FBE8DBF089582E355
:1052F00090E00E9405264DE455E266E07BE382E300
:1053000090E00E947B1B60938D0270938E028093CD
:105310008F02909390028091900299279F938F9390
:1053200080918F0299279F938F9380918E02992766
:105330009F938F9380918D0299279F938F9382E201
:1053400094E09F938F930E94831A8DB79EB70A961D
:105350000FB6F8949EBF0FBE8DBF08958EE190E00A
:105360000E94052640EC58EA60E073E68EE190E08A
:105370000E947B1B60938107709382078093830751
:10538000909384078091840799279F938F938091AE
:10539000830799279F938F938091820799279F93E3
:1053A0008F938091810799279F938F9380E494E056
:1053B0009F938F930E94831A8DB79EB70A960FB65C
:1053C000F8949EBF0FBE8DBF0895AF92BF92CF924B
:1053D000DF92EF92FF920F931F9380915908909163
:1053E0005A08892B09F44AC0A0905908B0905A086D
:1053F00060915B0870915C0820915D0830915E08B7
:10540000E0905F08F090600888279927982F872FF1
:10541000762F662744275527A90133272227620FB5
:10542000731F841F951FCC24DD246A0D7B1D8C1DEA
:105430009D1D002711271E2D0027FF24EE246E0D31
:105440007F1D801F911F60935308709354088093B1
:105450005508909356080E94092460915308709152
:105460005408809155089091560811E0E12EF12CD6
:1054700001E010E020E048E00E9462221F910F91BD
:10548000FF90EF90DF90CF90BF90AF9008950E9473
:1054900098350895AF92BF92CF92DF92EF92FF922C
:1054A0000F931F93CF93DF93CDB7DEB722970FB63D
:1054B000F894DEBF0FBECDBF9A83898364E071E0AC
:1054C000CE0101960E9458396C01FF2410C0F3945C
:1054D000EF2DFF27EE0FFF1FEE0FFF1FE55BFE4FC7
:1054E00080819181892B19F480E090E03FC00F2DDD
:1054F0001127F801EE0FFF1FEE0FFF1FE55BFE4FB8
:10550000B601808191810E94DE38892B01F7EE245B
:10551000FF2486E0A82E81E0B82E6E010894C11CFD
:10552000D11CB501C6010E94583940E050E060E04E
:1055300070E00E947037F701EE0FFF1FE75AF74F38
:10554000718360830894E11CF11C8AE0E816F10481
:1055500041F7000F111F000F111F055B1E4FF801CF
:1055600082819381FC01099581E090E022960FB63B
:10557000F894DEBF0FBECDBFDF91CF911F910F9189
:10558000FF90EF90DF90CF90BF90AF90089590E0A4
:10559000F999FECFE92FFF27DF015E96EF57F84F0D
:1055A0008081082E0E94F63C9F5F943088F390E043
:1055B000F999FECFE92FFF27DF019296E757F84FC1
:1055C0008081082E0E94F63C9F5F943088F390E023
:1055D000F999FECFE92FFF27DF019696EB57F84F99
:1055E0008081082E0E94F63C9F5F943088F30895D6
:1055F000CF93DF93DC01EB01AB0131C09927969586
:10560000879596958795FE0181939F019C91937054
:105610009295907F9983FD018181882321F4E9018E
:10562000219622E020C082958F70890F8983FD0129
:1056300091819F70990F990F9A838281882319F421
:10564000239621E010C08295869586958370890FF8
:105650008A83FD0182818F738B83249613968C91AC
:10566000882361F620E01882DA0108C0EC91FF2758
:10567000EF73F070E75AFB4FE491ED93AC17BD0761
:10568000A9F7FD01922F02C08DE381939150E0F7BD
:10569000A20FB11D1C92DF91CF910895FC012B98B0
:1056A0008AE38EBD0DB407FC07C0FCCF1EBC0DB451
:1056B00007FEFDCF8EB58193615070408FEF6F3F35
:1056C0007807A1F72B9A0895FC012B988AE78EBDE5
:1056D0000DB407FEFDCF81918EBD615070400DB4B9
:1056E00007FEFDCF61157105B1F72B9A08952B9830
:1056F000962F9F71982B9EBD0DB407FEFDCF1EBC4B
:105700000DB407FEFDCF67FF04C01EBC0DB407FE3D
:10571000FDCF8EB52B9A992708952B988EBD0DB489
:1057200007FEFDCF6EBD0DB407FEFDCF2B9A089589
:10573000FF920F931F93F62E082F0F710B3198F4E1
:10574000182F107680916E08181769F010936E0864
:1057500063E08FEB0E948D2B129516951770612FC9
:105760008FE90E948D2B6F2D802F80640E948D2BDE
:105770001F910F91FF9008950F931F93082F992762
:105780008F7190704B979CF4102F107680916E085B
:10579000181769F010936E0863E08FEB0E948D2B51
:1057A000129516951770612F8FE90E948D2B602F2F
:1057B00080E00E94772B99271F910F9108950F93F6
:1057C0001F938B01682F84ED0E94982B602F86ED2C
:1057D0000E94982B012F1127602F87ED0E94982B94
:1057E0008AEE0E94BC2B80FDFBCF1F910F91089584
:1057F0000F931F93682F84ED0E94982B61E082ED38
:105800000E94982B8AEE0E94BC2B80FDFBCF60E0AB
:1058100082ED0E94982B89ED0E94BC2B082F112746
:10582000102F002788ED0E94BC2B9927802B912BED
:105830001F910F910895EF92FF920F931F93CF93B3
:10584000DF93EC017B018CE10E94BC2B86FD08C03C
:1058500089E30E94BC2B882319F400E010E072C099
:1058600060916F087091700880E00E94982B6091A1
:105870006F0870917008672F772781E00E94982B3E
:1058800060E08AE30E94772B9927909370088093B9
:105890006F0800916F081091700860E08AE30E9421
:1058A000772B9927982F8827802B912B909370081E
:1058B00080936F0860E08AE30E94772B082F1127FE
:1058C00060E08AE30E94772B9927982F8827082B7E
:1058D000192B60E08AE30E94772B60E08AE30E9444
:1058E000772BC017D10708F48E01B801C7010E94B9
:1058F0004E2B80916F089091700880916F08909165
:105900007008019780509A4130F06FEF8CE00E9450
:10591000982B69E110C060916F0870917008615018
:105920008CE00E94982B60916F0870917008615014
:105930007040672F77278DE00E94982B60E48EE9F6
:105940000E948D2BC801DF91CF911F910F91FF9085
:10595000EF900895EF92FF920F931F93CF93DF93F1
:10596000EC017B0100E010E08FE10E94BC2B83FF83
:1059700009C086E69EE00197F1F70F5F1F4F0233E3
:10598000110591F760E082E00E94982B6AE183E0C4
:105990000E94982B6C2F86E00E94982BC050D64E08
:1059A0006D2F7727C050DA4187E00E94982B60E086
:1059B0008AE70E948D2BBE01C7010E94642B60E81C
:1059C0008FE90E948D2B60E88FEB0E948D2B6CE09D
:1059D0008FE90E948D2BDF91CF911F910F91FF9046
:1059E000EF900895CF93DF938FEF80936E08239A03
:1059F0002B9A2F9A84B1886B84B9269880E58CBD48
:105A000081E08DBD80E090E0A0E0B0E00000019674
:105A1000A11DB11D80342DE0920723E0A20720E0F4
:105A2000B207A1F76FEF8FEF0E948D2B80E090E01F
:105A3000A0E0B0E000000196A11DB11D8034EDE0B2
:105A40009E07E3E0AE07E0E0BE07A1F7C0E0D0E0CC
:105A500001C021968DE10E94BC2B80FD04C0FDEFAA
:105A6000C83EDF07B1F71092700810926F08CCE9BA
:105A7000D4E0FE0164912197FE0184910E94982B4D
:105A80002396F4E0C83CDF07A1F760E071E080E115
:105A90000E94DF2B60EC8BE10E94982B64E08FE981
:105AA0000E948D2B6AE774E384E10E94DF2B8FE173
:105AB0000E94BC2B80936D0882E70E94BC2B8093D0
:105AC0006D08DF91CF91089599272DE030E0A9016D
:105AD000849F9001859F300D949F300D1124E7E93C
