:100000000C9492180C94AF180C94AF180C949A1B83
:100010000C94AF180C94AF180C94AF180C94AF1844
:100020000C94AF180C94AF180C94AF180C94AF1834
:100030000C94AF180C9417250C94AF180C94AF18AF
:100040000C94AF180C94AF180C94AF180C94AF1814
:100050000C946A390C94AF180C94AF180C94AF1828
:100060000C946B370C94AF180C94AF180C94AF1819
:1000700047657420504F4E473A2025692E25692E3A
:1000800025692E25690D0A004552524F520D0A0D61
:100090000A0052656164790D0A0D0A000D0A004ECE
:1000A0005450204572722E0D0A00475720202025FB
:1000B00031692E2531692E2531692E2531690D0AC8
:1000C000004D41534B202531692E2531692E2531B4
:1000D000692E2531690D0A000D0A4950202020257E
:1000E00031692E2531692E2531692E2531690D0A98
:1000F00000436F6D70696C69657274206D6974205E
:100100004743432056657273696F6E20342E322E3A
:1001100035203230303831323033202870726572F9
:10012000656C65617365290D0A00436F6D70696CBC
:100130006965727420616D20446563203137203217
:1001400030303820756D2031363A33323A32300D46
:100150000A000A0D53797374656D205265616479E4
:100160000A0D00524553455420202D2072657365B9
:10017000742074686520415652202D20436F6E74A0
:10018000726F6C6C65720D0A415250202020202D38
:10019000206C69737420746865204152502074612A
:1001A000626C650D0A544350202020202D206C697C
:1001B00073742074686520746370207461626C6568
:1001C0000D0A495020202020202D206C6973742FA7
:1001D0006368616E67652069700D0A4E4554202082
:1001E00020202D206C6973742F6368616E67652011
:1001F0006E65746D61736B0D0A524F5554455220F4
:100200002D206C6973742F6368616E676520726F4F
:10021000757465722069700D0A4E5450202020209C
:100220002D206C6973742F6368616E6765204E546E
:10023000500D0A4E5450522020202D204E54502054
:10024000526566726573680D0A4D41432020202077
:100250002D206C697374204D41432D616464726577
:1002600073730D0A564552202020202D206C69738F
:100270007420656E632076657273696F6E206E758B
:100280006D6265720D0A535620202020202D2073A8
:100290006574207661726961626C650D0A50494E21
:1002A000472020202D2073656E642050696E670DF5
:1002B0000A54494D452020202D206765742074691B
:1002C0006D650D0A48454C502020202D2070726924
:1002D0006E742048656C70746578740D0A3F202038
:1002E000202020202D207072696E742048656C706B
:1002F000746578740D0A002563000A0D54494D4554
:100300003A202532693A2532693A2532690D0A00C8
:10031000496E68616C74206465722056617269610F
:10032000626C655B2532695D203D202532690D0ACE
:1003300000202054696D653A2534690D0A0020209B
:10034000504F52543A253469002E253369002E252A
:100350003369002E25336900202049503A2533693E
:100360000025326900202054696D653A2534690DF5
:100370000A002E253369002E253369002E253369A6
:1003800000202049503A253369002E253278002E6E
:10039000253278002E253278002E253278002E2541
:1003A00032780025326920204D41433A25327800C9
:1003B000454E4332384A36302D56657273696F6E3A
:1003C0003A202531780D0A004D79204D41433A20DD
:1003D0002532783A2532783A2532783A2532783AF9
:1003E0002532783A2532780D0A00526F757465729D
:1003F0002049503A202531692E2531692E25316951
:100400002E2531690D0A004E45544D41534B3A207B
:100410002531692E2531692E2531692E2531690D49
:100420000A004E54505F5365727665723A2025314A
:10043000692E2531692E2531692E2531690D0A0075
:100440004D792049503A202531692E2531692E25D4
:1004500031692E2531690D0A004142434445464722
:1004600048494A4B4C4D4E4F505152535455565794
:1004700058595A6162636465666768696A6B6C6D36
:100480006E6F707172737475767778797A303132F5
:10049000333435363738392B2F3D000400051A0622
:1004A000FF071F080009000AFF0B19C100C00DC299
:1004B00032CAEECB05C412C612C70CE400E520E236
:1004C00018E3B1E015E16F3C686561643E3C6D6521
:1004D000746120687474702D65717569763D22436E
:1004E0006F6E74656E742D547970652220636F6E23
:1004F00074656E743D22746578742F68746D6C3BFE
:1005000020636861727365743D69736F2D38383587
:10051000392D3122202F3E0D0A3C7469746C653EE2
:10052000415652206D696E69205765627365727617
:1005300065723C2F7469746C653E0D0A3C73747966
:100540006C6520747970653D22746578742F6373CF
:1005500073223E0D0A3C212D2D0D0A424F44592095
:100560007B096D617267696E3A203020302030203F
:10057000303B206261636B67726F756E642D636FD1
:100580006C6F723A2077686974653B207465787483
:100590002D616C69676E3A63656E7465723B207D90
:1005A0000D0A502C204449562C2048312C2048322A
:1005B000207B666F6E742D66616D696C793A20766A
:1005C000657264616E612C20617269616C3B2066AA
:1005D0006F6E742D73697A653A20313170783B7D86
:1005E0000D0A4831207B20206261636B67726F7552
:1005F0006E642D636F6C6F723A202343434343460E
:10060000463B2070616464696E672D746F703A3583
:1006100070783B2070616464696E672D626F7474DA
:100620006F6D3A3570783B666F6E742D73697A65BD
:100630003A20323070783B20636F6C6F723A20231F
:100640003030343036303B20666F6E742D776569FC
:100650006768743A626F6C643B206C657474657291
:100660002D73706163696E673A203870783B626FF2
:10067000726465722D746F703A2032707820736FD7
:100680006C696420234545454545453B20626F72B2
:100690006465722D6C6566743A2032707820736FD1
:1006A0006C696420234545454545453B626F72644E
:1006B00065722D626F74746F6D3A2032707820739A
:1006C0006F6C696420233030343036303B20626FE9
:1006D000726465722D72696768743A20327078208E
:1006E000736F6C696420233030343036303B7D0DBD
:1006F0000A4832207B20666F6E742D73697A653AE2
:1007000020313570783B2070616464696E672D74A8
:100710006F703A20323070783B2070616464696E8B
:10072000672D6C6566743A353070783B2070616473
:1007300064696E672D72696768743A353070783B0A
:10074000636F6C6F723A233030343038303B206640
:100750006F6E742D7765696768743A626F6C643B7D
:1007600020746578742D6465636F726174696F6E4F
:100770003A756E6465726C696E653B626F72646532
:10078000722D746F703A2031707820736F6C6964C9
:1007900020233030343038303B7D20502C204831FD
:1007A0002C204832207B6D617267696E3A20307070
:1007B000782030707820357078203070783B7D0D4F
:1007C0000A2D2D3E0D0A3C2F7374796C653E3C2F2B
:1007D000686561643E0D0A3C626C6F636B71756F96
:1007E00074653E0D0A3C626C6F636B71756F746566
:1007F0003E0D0A3C626C6F636B71756F74653E0DE4
:100800000A3C626F64793E3C64697620616C69677A
:100810006E3D2263656E746572223E0D0A3C68313E
:100820003E415652206D696E69205765627365724C
:100830007665723C2F68313E0D0A3C2F6469763E26
:100840003C42523E0D0A3C68323E476C2675756D3F
:100850006C3B636B77756E7363683C2F68323E3C0C
:1008600042523E0D0A3C703E57656E6E2064752004
:1008700064696573656E2054657874206C65736572
:100880006E206B616E6E73742C20686173742064CB
:1008900075206573206765736368616666743A3CAA
:1008A0002F703E3C42523E3C42523E0D0A3C703E4E
:1008B0003C696D67207372633D2263616D6572618F
:1008C0002E6A7067222077696474683D223634305E
:1008D00022206865696768743D22343830223E3CC6
:1008E0002F703E3C42523E0D0A3C703E44657220E1
:1008F000576562736572766572206C2661756D6CE2
:100900003B75667420212121203C2F703E3C4252D1
:100910003E0D0A3C666F726D206E616D653D22660C
:100920006F726D3122206D6574686F643D22706F47
:1009300073742220616374696F6E3D22223E0D0A3A
:100940003C7020616C69676E3D226C656674223E66
:10095000266E6273703B202020203C2F703E0D0AD3
:100960003C7020616C69676E3D226C656674223E46
:100970000D0A3C696E70757420747970653D226350
:100980006865636B626F7822206E616D653D224FF2
:100990005554222076616C75653D224122202550F8
:1009A0004F525441303E0D0A3C7370616E20636CAF
:1009B0006173733D225374696C32223E506F7274BE
:1009C00020412050696E20303C2F7370616E3E3C98
:1009D0002F703E0D0A3C7020616C69676E3D226C81
:1009E000656674223E0D0A3C696E707574207479D8
:1009F00070653D22636865636B626F7822206E616B
:100A00006D653D224F5554222076616C75653D22FF
:100A100042222025504F525441313E0D0A3C737002
:100A2000616E20636C6173733D225374696C322272
:100A30003E506F727420412050696E20313C2F73FC
:100A400070616E3E3C2F703E0D0A3C7020616C69F7
:100A5000676E3D226C656674223E0D0A3C696E70BD
:100A6000757420747970653D22636865636B626F8D
:100A70007822206E616D653D224F555422207661AB
:100A80006C75653D2243222025504F525441323E21
:100A90000D0A3C7370616E20636C6173733D225369
:100AA00074696C32223E506F727420412050696E1E
:100AB00020323C2F7370616E3E3C2F703E0D0A3C1D
:100AC00064697620616C69676E3D226C656674228C
:100AD0003E0D0A3C70726520616C69676E3D226C48
:100AE000656674223E3C696E707574207479706519
:100AF0003D227375626D697422206E616D653D22C1
:100B0000535542222076616C75653D2253656E64B3
:100B1000656E223E3C2F7072653E0D0A3C62723E4D
:100B20000D0A3C62723E0D0A3C703E3C696D6720C6
:100B30007372633D222550494E4437222077696401
:100B400074683D22313722206865696768743D22E8
:100B50003137223E20506F727420442050696E203D
:100B6000373C2F703E0D0A3C703E3C696D67207328
:100B700072633D222550494E4436222077696474C1
:100B8000683D22313722206865696768743D2231EB
:100B900037223E20506F727420442050696E2036F8
:100BA0003C2F703E0D0A3C703E3C696D67207372AD
:100BB000633D222550494E4435222077696474688C
:100BC0003D22313722206865696768743D223137DC
:100BD000223E20506F727420442050696E20353CB4
:100BE0002F703E0D0A3C62723E0D0A3C62723E0D51
:100BF0000A3C7461626C6520616C69676E3D2263BA
:100C0000656E746572222077696474683D223530A0
:100C1000302220626F726465723D2230223E0D0ADE
:100C20003C74723E0D0A3C74682073636F70653DBE
:100C300022636F6C223E3C7020616C69676E3D22BE
:100C400063656E746572223E45696E67616E673CCE
:100C50002F703E3C2F74683E0D0A3C74682073630D
:100C60006F70653D22636F6C223E3C7020616C6941
:100C7000676E3D2263656E746572223E42616C6BE5
:100C8000656E3C2F703E3C2F74683E0D0A3C7468C4
:100C90002073636F70653D22636F6C223E3C702051
:100CA000616C69676E3D2263656E746572223E54A5
:100CB000656D70657261747572205B266465673B53
:100CC000435D3C2F703E3C2F74683E0D0A3C2F74F0
:100CD000723E0D0A3C74723E0D0A3C74643E3C70D8
:100CE00020616C69676E3D2263656E746572223E99
:100CF00041442D4B616E616C303C2F703E3C2F7433
:100D0000643E0D0A3C74643E3C7020616C69676E01
:100D10003D2263656E746572223E3C2F703E3C69D5
:100D20006D67207372633D2262616C6B652E67692B
:100D300066222077696474683D2225564140303030
:100D400022206865696768743D223130223E3C2F5D
:100D500074643E0D0A3C74643E3C7020616C6967AB
:100D60006E3D2263656E746572223E2556414030A9
:100D7000303C2F703E3C2F74643E0D0A3C2F747241
:100D80003E0D0A3C74723E0D0A3C74643E3C702079
:100D9000616C69676E3D2263656E746572223E41C7
:100DA000442D4B616E616C313C2F703E3C2F74645E
:100DB0003E0D0A3C74643E3C7020616C69676E3D78
:100DC0002263656E746572223E3C2F703E3C696DF5
:100DD00067207372633D2262616C6B652E67696682
:100DE000222077696474683D2225564140303122C3
:100DF000206865696768743D223130223E3C2F745B
:100E0000643E0D0A3C74643E3C7020616C69676E00
:100E10003D2263656E746572223E25564140303135
:100E20003C2F703E3C2F74643E0D0A3C2F74723E82
:100E30000D0A3C74723E0D0A3C74643E3C702061A5
:100E40006C69676E3D2263656E746572223E414433
:100E50002D4B616E616C323C2F703E202020203C77
:100E60002F74643E0D0A3C74643E3C7020616C69D2
:100E7000676E3D2263656E746572223E3C2F703E44
:100E80003C696D67207372633D2262616C6B652EF5
:100E9000676966222077696474683D22202556417F
:100EA000403032226865696768743D223130223EE5
:100EB0003C2F74643E0D0A3C74643E3C7020616CAF
:100EC00069676E3D2263656E746572223E255641E8
:100ED0004030323C2F703E3C2F74643E0D0A3C2F54
:100EE00074723E0D0A3C74723E0D0A3C74643E3CC2
:100EF0007020616C69676E3D2263656E7465722255
:100F00003E41442D4B616E616C333C2F703E20207E
:100F100020203C2F74643E0D0A3C74643E3C7020DB
:100F2000616C69676E3D2263656E746572223E3C3A
:100F30002F703E3C696D67207372633D2262616C65
:100F40006B652E676966222077696474683D22208C
:100F5000255641403033226865696768743D223107
:100F600030223E3C2F74643E0D0A3C74643E3C705B
:100F700020616C69676E3D2263656E746572223E06
:100F80002556414030333C2F703E3C2F74643E0D5B
:100F90000A3C2F74723E0D0A3C2F7461626C653EF0
:100FA0000D0A3C42523E3C42523E203C7020616C55
:100FB00069676E3D226C656674223E203C68323E55
:100FC0003C2F68323E3C42523E0D0A3C703E3C6132
:100FD00020687265663D225374617475732E68745F
:100FE0006D223E5374617475733C2F613E3C2F70CB
:100FF0003E3C42523E0D0A3C42523E3C42523E2052
:101000003C7020616C69676E3D226C656674223E9F
:10101000203C68323E3C2F68323E3C42523E0D0A34
:101020003C703E3C6120687265663D226874747055
:101030003A2F2F7777772E756C72696368726164C7
:1010400069672E6465223E7777772E756C726963C7
:101050006872616469672E64653C2F613E3C2F7045
:101060003E3C42523E0D0A3C7020616C69676E3D09
:10107000226C656674223E556C7269636820526109
:101080006469672032303038203C42523E3C425244
:101090003E3C2F703E0D0A3C2F626F64793E3C2F20
:1010A00068746D6C3E0D0A0D0A25454E44003C6285
:1010B0006C6F636B71756F74653E0D0A3C626C6F8B
:1010C000636B71756F74653E0D0A3C626C6F636B88
:1010D00071756F74653E0D0A3C626F64793E3C64C5
:1010E000697620616C69676E3D2263656E74657216
:1010F000223E0D0A3C68313E537461747573205072
:101100006167653C2F68313E0D0A3C2F6469763E6D
:101110003C42523E0D0A3C6469763E436F6D7069F5
:101120006C6965727420616D2044656320313720DD
:101130003230303820756D2031363A33323A32321F
:101140003C76723E20436F6D70696C6965727420E5
:101150006D6974204743432056657273696F6E2032
:10116000342E322E35203230303831323033202890
:1011700070726572656C65617365293C2F64697670
:101180003E0D0A3C6469763E42657375636865721C
:1011900020736569742053746172742064657320D0
:1011A00057656273657276657273202825564140D3
:1011B0003039293C2F6469763E0D0A3C42523E3C50
:1011C0006469763E416B7475656C6C65205A65691F
:1011D000743A202554494D453C2F6469763E0D0AEA
:1011E0003C42523E3C42523E203C7020616C69675A
:1011F0006E3D226C656674223E203C68323E3C2F78
:1012000068323E3C42523E0D0A3C703E3C612068D2
:101210007265663D22696E6465782E68746D223E43
:10122000486175707473656974653C2F613E3C2F2D
:10123000703E3C42523E0D0A3C42523E3C42523EBF
:101240003C7020616C69676E3D226C656674223E5D
:10125000203C68323E3C2F68323E3C42523E0D0AF2
:101260003C703E3C6120687265663D226874747013
:101270003A2F2F7777772E756C7269636872616485
:1012800069672E6465223E7777772E756C72696385
:101290006872616469672E64653C62723E0D0A3C47
:1012A0002F613E3C62723E556C72696368205261E8
:1012B00064696720323030373C2F703E3C42523EEA
:1012C0003C2F736D616C6C3E0D0A3C2F626F64792C
:1012D0003E3C2F68746D6C3E0D0A25454E44004718
:1012E000494638396111001100A53F004D4D4D5060
:1012F000504F545454416A445C5C5C3F7342626298
:10130000626A6B6B16A71E6F6F6F5F7A6019AD21F3
:101310001CB2255694597B7B7B1ABD2323BA2C1B08
:10132000C3258383831CCA267C8B7D1CD3268B8B91
:101330008B2DCC361CD8261DDF289091911DE128DD
:101340001EE22921E22C35DB3F2EE4389C9D9D3E98
:10135000E64740E649A5A5A547E75050E458A9A9A6
:10136000A94EE856AEAEADAFB0AFB0B0B064E66B6C
:10137000B4B4B5B8B8B96CEC7377ED7DBFC0BFC07D
:10138000C0C0C2C2C2A6DAA9C9C8C993F198CCCC60
:10139000CCD1D1D1A5F3A9D5D5D5DEDEDEE0E0E014
:1013A000C5F7C8E7E7E7EFEFEFFFFFFF21F904011B
:1013B0000A003F002C00000000110011000006EDA3
:1013C000C09F50D8CBC954A9966DC8FCF974371A80
:1013D0008C65026940B4A66FA72B2D10E0C545E2CD
:1013E000680D7DBB1923E2097D3295C7A291800962
:1013F000753AC6C5F5729D3E1B15130B09123F3D8C
:10140000371E112B3538352E221D1B180F10062CB8
:1014100039340B1E2F383C382F241D1B1B150B068F
:1014200016323008212E3538352E221CA418080417
:10143000072A2C081F272E2F2E271FA41B1908044C
:1014400002292608191F2224221FC41B190802067C
:101450002D200B181B1DDED31B150B0212361A1084
:101460000FE0D3111000283F20140B13EA1B130BBD
:10147000030942340E0D0B0F18326CC880E1C18293
:101480000200580C69914001840560102C60100026
:10149000C008263F624830608000010102002460DD
:1014A0008171080B0B0704189080026310003B2524
:1014B000454E4447494638396111001100A53F00A7
:1014C0004D4D4D5050505252525454545756575AF5
:1014D0005A595D5D5D5E5D5D5E5E5E60606062622C
:1014E000626363636464646565656969696E6E6E91
:1014F0007070707777777878787A7A7A7B7B7B7E72
:101500007E7E7F7F7F8080808181818383838787C8
:10151000878989898B8B8B8E8E8E909191919192F8
:101520009393939797979A9A9A9C9C9CA5A5A5A903
:10153000A9A9ABABABACACACAEAEADAFAFAFAFB0DF
:10154000AFB0B0B0B2B2B2B4B4B4B4B4B5B5B5B56E
:10155000B8B8B9BFC0BFBFC0C0C0C0C0C2C2C2C897
:10156000C8C8C9C9C9CCCCCCD1D1D1D5D5D5DDDD80
:10157000DDDEDFDEE0E0E0E7E7E7EFEFEFFFFFFFD4
:1015800021F904010A003F002C00000000110011A5
:10159000000006ECC09F50D8CBD1562AD86DC8FCAD
:1015A000F976B85AEC551A7946B5A68FA7133510B7
:1015B00006C442A3A1C0863EDECC31E97C36950943
:1015C000A41181C8843B9DA373629D461B1616120D
:1015D0000C0F183F3D381F1327343734272018824B
:1015E00010120A2E39360D1D2C373B372C2119824B
:1015F000130A091C3431081F263437342720178278
:101600001508070E2B2F061B23272C27231B82824E
:10161000060503292508151B2021201BC3161508C4
:10162000040C30230B1316181918D116130A0219BB
:10163000371E1710DFD1101500283F231A0D12E9AD
:1016400016120A010F423514110C1013152C549860
:1016500000414101002D86C080F040820204061046
:10166000287810000089263330284860A000010146
:10167000001EB46832C405070703186440D124086B
:10168000003B25454E4447494638396102000A006F
:10169000A20000A2A5ED848FE5667CDD4960D6211D
:1016A00044DAFE010200000000000021F9040514E4
:1016B0000005002C0000000002000A0000030A4898
:1016C0003423120148001D5309003B25454E444771
:1016D00049463839615A005C00F700006C6E64BC02
:1016E000BA4CB7B5AC6161AF908CA8DADCAF6F666D
:1016F000D8DCDE71DEDEE28F8DD7DCDE88B6B6E0C8
:101700007979D8F0F0B0EFF0878378A9F6F4E18C1E
:101710008E549F9FDAA1A2A9C9C9E07F78F0EFF0AB
:10172000C7E9F2A2BAB782C9CAB07878C1E9F16252
:101730007569F1929279EBF1FBC4C981918EEFF05A
:10174000F2708C8CC0DEDEFAE3E0C8B7B4FA8A84AB
:10175000D7C8C9FBF8FD88A4A2787168BFA3A0F020
:101760009F9FC0776E97FAFDB0DFDF9F8883C0BA76
:10177000B8C78784F0FAFDC8F9FD717870D8CEC972
:10178000C57F78E48183A9D7E7FCF8FDA0B4B497BE
:101790009C98D8FCFDE0FCFEFB9897C1979391774D
:1017A00070C08C8088DEE8AFE6EA87EEEF94727056
:1017B000EEF0F0BC7E78CC8178FCB0ACF2F2F3D4E1
:1017C000BFC89F9998F0C0C0FBD2D4FBA09AA8BF15
:1017D000BFE0857BD9D1D3E1D3D3B0B1ACA6DEE8ED
:1017E000C9A8ACC081809A7E79B4F7F39EC7C7714F
:1017F000C1C0B1EAF07C7264E4EAE9DFA090D6F4FB
:10180000F6B0ACACD8F8FD94C4C2C9D5DB94F4F6FC
:1018100088F2F0ECF5F6C7857CC1F6FE5BF7F4FBC9
:10182000F9FD7C7870E4A19C93827EF1878BCCEDEE
:10183000E0FCA6A48EBCC09A7871CC7870FC8D8C2C
:10184000E4A7A34F928FFCBEBAFAFAFDBCEAE8FB0C
:10185000D4D599726CA7928EB4DCDEBCB9B7EC8992
:101860007F61B7B6699A9461A1A06C847E7CE1E740
:1018700067807888C4C27CA19B79D4D480CFD6C934
:10188000EBE8A0C0C064D4CA97ACAE78A9A3E49A30
:101890009EB4C5C7EC6967CC888898CCCE647E7747
:1018A00099949A44AAAA92848769E8E9BCDFE894EB
:1018B0009497B4D7D5ECD4D4BCE6E8D4B9B5BCE0A1
:1018C000E17CE1E0ECB4B58C999284C6C78CDEE093
:1018D000D4A5A2FCA4A0CCB2B4D4CECCD4746CB4A5
:1018E0007C66B4C8BAE0AEA4AACCCEBCF7F56474EA
:1018F00069FCD5CDFBB4B8A492939C90926CD0CCEB
:10190000A48B888BACAA688583E48D85CCFBFDD441
:101910008483B49A98CCA098FCA9ABCCC2C0D49ACA
:101920009B9CC4C2A4BCB674888878E9E294968E65
:10193000CC7668CC7C7274A2A5848A83FC9A99E4E4
:10194000FCFEECEEE7B27D70F1AEABFCDDD5FBBC8E
:10195000C2ECE0D2E0B4ADB4EDE9C8C1C0BCB4AEF5
:10196000E4F8FE64D0D6A4E9EA749C9A8498899934
:10197000BFBAB19692A6E4E2B0736AD9867EA9A2F4
:10198000A6D9CCCEE49A92C4AEA6F2A9A6BCD4CE77
:10199000CCC4C28CDCD6D4B4B65CECE8ECA4A29C7B
:1019A00088806CC2C174AFAA84C8CF74ACAE9CDC12
:1019B000CAEC817EE4F4F694F0F6BC7E7ECC807EA8
:1019C000FC847EB4F3F67C716AE4F6F6ECA8A6B467
:1019D000D4CE8CADA6CCC0BAD47572B421F90401B2
:1019E00000003E002C000000005A005C000708FFC9
:1019F000007D081C48B0A0C18306990D5C23B08708
:101A000043850419AE99280B818F893E984150086F
:101A1000D1C7198420438A1C499059C78110F45DAD
:101A20006468704F9E2917053263699026C99B38F8
:101A300049DA5CC8334F02311E640ADC3934A7D15D
:101A4000A3327B9CDC13D487CA811013D01121F000
:101A5000E91E5904F51145CA35A4C35D457DF498C6
:101A6000B1AB07548852BE99A8EA23C732255DE37B
:101A7000E264C8AC4759851E58A2315BD28707790A
:101A80001540105C40E719C69872131FFC0AF6E275
:101A9000293B3C508993B8C624B31315EA34699A9C
:101AA00083478D122CF7C0548CF464C4B1652FAEFB
:101AB000086267459A2C4EF6C464A66F81110E76B3
:101AC000827A50C2E086E18B14406D253DD272418E
:101AD00066F41A80DDAD01CEC072FF4A0CECB1266F
:101AE0005ABE0A3C0682B8C1E0772B2C4F881BFFF8
:101AF000AD5B3763C9192ECC3E31B142B6873D0B81
:101B000074A5B129AE420D316B3C3C69D3E6D49E3D
:101B100035B28880C308C3155460570E2548D05885
:101B20002EA0E1431C48E41187122728214510CB41
:101B30001CE683280968308240B2DC20C3877BF032
:101B4000008E353C8957DC2E6529B5E00C17D0C3D3
:101B5000CC1E69C8B20718300491862EE3D0D4C3D6
:101B600017E1F811D41A4E7CE3CB19D5C120023409
:101B70008845A4E2627691E5504C63E990DE1EABA5
:101B8000E8C21028C4B841411C03E933033D36C400
:101B900030543C60800901163800729386C431B31A
:101BA000CB9833B828931EF3E8408F073FA4F18306
:101BB0003ABBA081060419CDC44C183A58F18942A9
:101BC0007B8892CA1A165041C9024D0DE541A561A4
:101BD000A9C89043338C999A4C33E880820E3DC457
:101BE000C1431AC04030831E2D2AA4CF1863A4FF1E
:101BF000B750650D0C218AA598FA55D48139412436
:101C00005146ABBAA0C70C103183DE1866CCE0C3D6
:101C10001EF5F022CD11174849E82E28D0A083B236
:101C2000027D21E7108DC926D01339E440C12FBDB4
:101C3000F4C2030FBD5C615193999664D2AC16B89F
:101C4000B806394A045565AC4B141A2A0D28C83A0F
:101C50008209E014E042034A39A4070DD62ACB12C8
:101C60003DBB58905F1C259C22317770F4D15B0DF1
:101C70000CC8A30434BCAE28680F1E98C0801D3960
:101C800088A5033E63EC62590F7AB04143B2173521
:101C90009106299D82A5EA186CB0A103A11389229F
:101CA000001731FCF28F09264C22C3370C9450C226
:101CB00009CF54F08D0C4E5CAA580F0D5CEB8106D9
:101CC0000C7CD3C408CC1C8C8FAC02517B0D1B2E1A
:101CD0002C6B822E9490D080B210B8D005D910AC65
:101CE0007142097648B10AD12A301084040BE4FF0E
:101CF000D0D4A5CBA85542AE0799966243C6C62A52
:101D00000E126F9CC2C00AA2F4A0030DD152596DED
:101D1000BF0A2DD307283D84A18749A136E389084E
:101D200026B4E1B40C7420D1440923EC51B24039FB
:101D3000C0948706CB3CD1B152A60D176A18BF30AC
:101D4000D01D080C244006A26390AA500FF3B08166
:101D500042315FDC8805362E44BB0B04E8B8E2470D
:101D60001AC754E0CC1B5238E137EC3E4800480E0D
:101D70004FA4E284133780F0A179ECCBD5353DCB6D
:101D8000BC914B1332DC50030CD534836C1875CEE8
:101D900030060A5D400437F6D18D4510010544A890
:101DA00059144C50030EA44F162CA9140B72500258
:101DB000068840044E3881330CE08486E00E2A24E5
:101DC000E108423CE08B249CC00E46A8431D9C21A8
:101DD0008569940105A35A153EF0318F0FECE0158B
:101DE0009A70010ACCB00917B8C00ABAF00207FF0E
:101DF0007C211B86E8431F66094A0264E08B490484
:101E0000C109D050C61BF24014111AEE2C09220F42
:101E1000FB1842C25878C00E78C88C116A008E0F29
:101E2000C090063EC407D91AD00017E8A00B3A4864
:101E3000473A7C48050D702009CF48CABBF471822F
:101E40001C38C1084678437B4E61249A20D124FA7D
:101E5000D848FB0AE710342CA14553AA8C0F40F058
:101E6000060F8CE014F270021DE8F08B4DD0407923
:101E7000FCD2C1180E88337E61821D17B8800BB862
:101E800000831ADC200F4E2148504EA18CA6C92396
:101E9000014F380512A4B0873D40A0609DFAE0BB19
:101EA000425297B158A0667799513D649083673844
:101EB000E10927A807039E300314E42C673BC407FD
:101EC0000CABA50062D8005A17988506267183A826
:101ED0000D44141EF8452F39500723C0E109B2C044
:101EE0008306FE8380638E490F7AC0DD1511C2FF21
:101EF000297A84C105C1F481246AF006273C436233
:101F000080718612D0300684CD430B08DBA116D633
:101F1000F68817ECE20FC9B80015606084249CE2D3
:101F2000757CF2012A24F0846FDC4005E1F0410564
:101F30000C009A4E4C010D7AB88095EAB44F84D0CB
:101F40008541FF0CC31198010D5DD0216B15002454
:101F50002041A08F22204C0B3A80C53568100A0C16
:101F60004060097C2880373A90810B58A11E49882F
:101F7000453EA221100FF0C2032718800C2A904979
:101F80000F38A102F618C11780F08919144158F9C9
:101F9000ACE915E95297198421A716A806277E00F7
:101FA000877A8060121DB5C70022514D7EB141A9CC
:101FB000D918063240A1CA5700A103FFB4422E62CD
:101FC000118B6FFC4257E1585A1B9CD1CE117800FF
:101FD000063738C508124108CF5DA02C1DF30AA7AB
:101FE00066508CB736205FAAE0C50A72D90606FF94
:101FF0002C0307106828C23E890205B8410E79AA51
:10200000C2213431042B4C401EECAC000C9A72827D
:102010001AE0C11E49E0802C7290877A482007EAB6
:1020200008C40588C02ABEA4762454D321BF6660A4
:102030000A4E68A08F1319411052310F84B94C79A0
:102040003CDC040A2E0000282CE1132C18400DEC77
:10205000710A0ED001126D194103EB908F53E8E71E
:102060001B1A308505B4318B1934805048645708E9
:102070006B22161D62530F8BE0453D1200030D9835
:10208000E0061A60C419D9900D0530620C21408118
:102090002232200A04104003F2E0C113F6704729EF
:1020A00010C80725AC03123C9003112001104B28E7
:1020B0004532D0400F6C39A95735A98B1E44F93FE2
:1020C0002DB0E01FE7BA813D8CA0014FBCB1A10A41
:1020D000B8051044E5802D14000109C81A0FFC064C
:1020E0008D3A70A00DCBC8CB08DEF08D1FF8E0FF55
:1020F0000470C0823E10108C3FCCC92CBFC2493145
:102100001364A705A1210C0D1DC33460008D11E4DB
:10211000E1191C60802B8E8033366C421B6E38991F
:102120000EF8408D6EBCA10E99F44B7F2B50814967
:102130002C43202774C21A4E918639D0830C31F873
:10214000E5948E639961F2A4AE7AF0215C83C9971D
:102150008CF4408745B00001E8600006C8C00B372A
:10216000B00409C6B0011816A108CA23822658A0D7
:10217000012F5440064D0141054EF10C6518E1094F
:102180007939C11EE220054BC8940B716009638246
:10219000256B80B6C8206389B50ED66D251F0EEB62
:1021A0002155424118D001C65334C117CAD0001975
:1021B00026B7CD6A8D610813F8C70D8C70837AC479
:1021C000049379F0C029BC00870F11A90248E88662
:1021D0001B4950A839A14754302CDE4C550692BA01
:1021E000A247A6FFDBA6B004E5C644D5A30227FF9D
:1021F00078422E83E0075B880A61D7404103409113
:1022000085493841060C90004656C0809239C10E6F
:10221000038083044E504229B4020DE6466AC8ADDD
:10222000C9AF7ED19AD58BD9C592FFE7B2511500BF
:102230001455A04218A24501248416786F504130ED
:102240003491BC4F86210322C80533E9D07096F043
:1022500080013E70020372210F0D489303F908823A
:102260003AF4F0562DB82CA219B792CA3A72986275
:102270001A2E4A3EFCDF2640A18B6F180006131869
:10228000C20F832182139CC009A778830940D10023
:102290003398A10136C0813C7A7E02242460220A50
:1022A00069420DF2F086DB1881013078C06B8080C6
:1022B0000614149BE963D31304549D90E9107E28FF
:1022C00037ED143E3310440766E1161D903C137041
:1022D000B08CF3D9A30EDF78C092B5400254E4CDA0
:1022E0000E3EC8836D87F46623B4C108CA504BFF05
:1022F00034CEF0052E246214465543D361A8837C66
:102300001EB9F714B609441620056704211243D8F4
:10231000042632E1823088E00D356004B1500715A3
:10232000D00247A005CD0005AEF44E60953ECB220D
:10233000104E9004AFA7019CC0046E842C3B840215
:102340006AA07E6C300F00056FB5761C8B444C5D27
:10235000550206F00DD6F00963D00505900CC5C3F3
:102360000274905C3710045070042E20000FE0348B
:10237000BC5032CF504E2C8119CE20031A10095672
:10238000E002A3244A0E400465C70663D05D2661BF
:10239000172178134F982065911A3920057470021F
:1023A000CCE0467AB00528300F5490061CC001419D
:1023B0004000C1E0096130042C10806D70050211ED
:1023C0000DF2101E6F960B8EA701FE6001433004C4
:1023D00016F00558070F5530072FB06E71C567C846
:1023E000944507B12951126BB2166BEFA60F3FFF50
:1023F000F00051B0062C430F170043178009C6B0F8
:102400000AAEC004477057F0500FCEC600921014A9
:10241000271004E1B1070C940B300004BB30048E8C
:10242000300BDB60092D000531C00D3B800165E0FC
:102430004364116BE4D66E35232FB36117890743CC
:10244000D884021AF70EF8C404B4800355F00AD4F5
:10245000400F66604DD970017AA0050EE0437F40C1
:1024600000FBF50C0CB03EE2304F7B400E6D703F30
:1024700036A005324702F1D00FD2F04B431053ED96
:10248000D00830940DDB244AD6D46F822825FAB0C8
:1024900032735272FF1372B0320FEFF05668A00A17
:1024A00062300D50E006EE200821C0064B055F0E9D
:1024B000400F57006398D70403E10162C0340C3029
:1024C0000926300D618002D7D00829B00DDB9008B5
:1024D00011400818F00276150A34700D631351F399
:1024E000308FC5E36E75A24FC621131EA76E2EFF57
:1024F000300A5C9001243002D0B007E880005C70A4
:102500000EEFB05BECE702549091E190030C700A7F
:102510002BE103236007DC0103557004F3A0542171
:10252000100A8E800D0AA0003B0004B7500DD41095
:1025300006111572EBE643107006595430E4D1676A
:10254000ECB25ABB7006E8000485200442C00EB508
:10255000707E0DA000D5E232D9E00068400937F066
:10256000067EA30125E02D130102CEA00B643004EA
:10257000A2F25E28E000A23206D4B00722F000AE3C
:10258000A009FFA3038C6025C35227BC225785D224
:102590003EC6B2643A009007B04D1BA8063A600AE6
:1025A00041C0001D541D2B401388760CADD000F3A4
:1025B000C808C5A003D10843F300013EF5005CB094
:1025C0002AB4D66ABB7214EF3285738271288032C6
:1025D00063E0005A80622BA903A8603F9EE503D602
:1025E000600D2CC16D521009D4A0038610023AFF71
:1025F000D00083F008805609A1E002CDC00537E085
:102600000CBC500D9AF04F52929C6FF27E62217C6E
:1026100053C7749F94624470572FB00548450541D5
:10262000E00C6B418A127011710003588009F25559
:10263000049770077C70048330086C94026E200D40
:1026400068E20C1C000E5CC09C1BD767FB04273E95
:10265000122CB072462C09780170070DE008B540C5
:10266000089A8006FBC01F70311080C0102BC00B71
:102670003BA0030CD95B0DA009D4400888E0438F30
:102680002004E0F000AC700C11870D2FD7749E3938
:10269000937CE66A06D210AB428F7F8730AB393627
:1026A0005FD80882300354C00E29000114900653ED
:1026B000664E7EF103790009BA400B461502C566E5
:1026C00006E7100819D0000E608C45700EA4200497
:1026D000DB0004F0C007A2C45BD79471C2F28B0F79
:1026E000512C109148108074F4684DD854A5CAFF3D
:1026F00013995AC00F2F600119400567300E41E051
:102700000B20E0260371025260027EB00497130290
:102710009FC4081850008CC090A1D400CDA009C55A
:10272000109DA262064B578CC5430F45B6175372D6
:102730003C63D129E5B6AB8AB86EB1F272A3D20E72
:1027400083D05A6860030F009B4A900A04610D52BF
:10275000A002E5582D9FE45E29664DD7A07E19D7CB
:102760006FB10250FF5472ED065045466B2E524C2D
:10277000F8F9992CC26751122CD06A060AA0085F9A
:102780003803B7700F69160D5130246B900548D08F
:102790000A33E0002E93628CBA5BBBF57763A33CEF
:1027A00033451664C122065BB0E69A104FFA7B955A
:1027B000A12AB8E95E9F045FD4700830F03D94E22E
:1027C0001769D00750F0078F3943A5C4061BA04DE9
:1027D000D0BAA811BB4DB1029AC168AE1F849C76D5
:1027E000C1502ED3922B490363400204F00F39FFEE
:1027F000C010CAFA044D8004E390018FA93C0E106A
:102800000AF2583CC852A5C49833FECA842E901AC6
:102810002C411EFB14852171713BE45EDBB4545DD9
:10282000C005FFE0210201087B700A35F00F02505D
:10283000890EB905ED503C8C60016DB492277A4D3C
:1028400055BA54A1542720444C35251675B5A48D8E
:102850008A0248358FA2D0071A400E7E210BA7505E
:102860000174D00F9FA007DB64065AF0018158065F
:10287000899008091902D5EAB68ADAA848FBB66E2B
:10288000591A0CB2A4F3286BBC399E9E200A0F1073
:1028900004BAF01F7B6007410003A6600547D00023
:1028A0005A50045A60577A500A836092C3700707DF
:1028B000B00192DBA89EE943C4382A7AC0335CC1D8
:1028C0002916C6A432397563400FD360090B800AFC
:1028D00022A001ABA00141A00238A00A56300A1D77
:1028E0008009A5800B811008C26001B630079BFFEC
:1028F000C03F61A008FA1AADEE355376B164EC170B
:10290000060C73B922713CFBE8ABED370384A2647B
:10291000938346C4A7020970023F00064150035248
:10292000A00BB33004D8200758D00DD5800E364008
:10293000005920068E3906F3D000D4E008CDB0A4AB
:102940001B38364BCB1173D2AB9BE9BE08611273B7
:10295000B2BA9EF36E3121893A34364370080C6066
:102960000F93F04E15A20B3C0004BB790168F00AEE
:10297000584009A27006E5800441500D4790873BFE
:102980002007B34005CD608E6A6BADEE371D240A7B
:1029900043BB908F245817BBF04890F47BB7467523
:1029A00044C00974900449307AB9500271200D4B2B
:1029B000F0B03B74019E6009FD6001DE700F356070
:1029C000021200038700045CE006A4B0036E554ABF
:1029D0001C182B8D216E1627252B0B25097B129B8E
:1029E000A20754370647700FD3366568C5002DFF20
:1029F000400AC53006864003EAF76F58E00F5A5088
:102A00000C5870313040069F8006474005A3700E79
:102A10006DF49C8A6A8C60831805934573FB84E58A
:102A20006138C752752E500DB081076F9004D017D2
:102A30000462500D7C29AA6AC00666500642600EE8
:102A4000F35004509005FFE007737001FDA8030ADE
:102A5000800B5AF0BA52AB3C275B388637B720045C
:102A6000A515D697A3A20F50100E7B40076F606D7F
:102A700082F404AE20B44C47625B900C9A39067F16
:102A8000300DD340022EC0061BB801C5B305F3308C
:102A90000F058B1EC488C7B36293D40C5E868B303F
:102AA0004DD8037B00035310050C800778C000F558
:102AB0001007E1800C5A20B208830F26265EEB86B1
:102AC00028D5B28156A20507E4BB4AB10B160643CE
:102AD0000055385CC1112CF39801BD06D010046B71
:102AE000100CBAF00CCFA0017DF0040450053AFFA1
:102AF000340F63000B4C5A76FCF23FB8AB7E0055A6
:102B0000350B392A322175186725501B17753BB0D4
:102B1000D4B1072500061E700B38E0044AF00F22DE
:102B2000E00F42500045102B7E8730B06A06FE6AE7
:102B300025D08A02ACE2D1A23A2AB596B9BE4B2C76
:102B400089F18481B26E1C87A084260A9680034F87
:102B50001004F58003E610A76EE44366507579E231
:102B60009166E74639830F5A501668A0A321902C2E
:102B7000BEE2031E2D4AD7E2C146E1104B80063368
:102B8000391471300ED3F005CCD60B2340079B4788
:102B90000265F056FCA343F8C02FBC0BD033B00441
:102BA0002EE0D54C3893539727D8C21252D77FAC1A
:102BB00062CD91FD15054328F00109FD00018BE070
:102BC00061DA660074E00A0D60D3816A8455D72902
:102BD000A584027B81061025B371B59C9D9BC752CD
:102BE000FA745D31850F211067200E9DC01423FFFC
:102BF000F003C740447150034850051DD9842CA2EE
:102C00000766A0463AF048EFBC546160302E132BA3
:102C10004A81444BA63CA55C104784D4D3FC1417CE
:102C200031243C9037A2164D3FC0B130349380061A
:102C3000D24A71C268548538D32F8DC1D83A144313
:102C4000DE15A52AE2DF1E000874200527B0062342
:102C5000600C3FF005466806C6C332FF330F71E5CE
:102C60003F9F941EC2588F46662C46A805DD7538D6
:102C70004F42107B4001F780041DC4D4E1800EBB9D
:102C8000A003923988D5E474A06361B262173A2A2E
:102C9000D61DC1206D04B7351E165293037E000E5B
:102CA00038D0E11ED0099D90119D778D8337163065
:102CB00014062AD3E2017D1163012BA59C2074F236
:102CC000D671AB221E200B7E80050B00271040D44E
:102CD000F6DC03F958C5CC7DCAFE43DF54B2D711E8
:102CE0004ED268102FF087143671184FC00238FF8B
:102CF000C00253C0109D10034C026BFC03152C3313
:102D00002A83072CA252CA30CE3F7866933DB07B0F
:102D1000471D1713C1457BF0043F4000E2D055CB5F
:102D2000C2311931279A3E1B52573CB55617BC5930
:102D3000DBC1372C6ACE11B4F1E43ED009E560095D
:102D4000BF603B98E2236301E6676DE2F9FDE3FAB9
:102D5000ACC44506A28562DB5DF1117EA10AC0000C
:102D60002636E1DF436130C3A2107441D4F97D6B94
:102D7000EDA7147A1C4C27D1CF5D51E8FF2D132A03
:102D8000C11248B40BCBAEEDB6C68827C1321FB80E
:102D900020B91AE1BADE2487E12D625138BB7004F4
:102DA0009F226EC4198230AED6297B17F70E12F21D
:102DB0005738AAB26A4941D94636D468A03234811C
:102DC000DD078FD40A5210B91A8575A548F4CEF0E4
:102DD000153FD27E0CB586C86ACEFEF17171F1182E
:102DE0006F12DF65F289E1F1EE52F22CAF222E076D
:102DF000DF17E4AE180101003B25454E444854540A
:102E0000502F312E302032303020446F63756D6585
:102E10006E7420666F6C6C6F77730D0A53657276F3
:102E200065723A204156525F536D616C6C5F576515
:102E3000627365727665720D0A436F6E74656E74A7
:102E40002D547970653A20746578742F68746D6CB0
:102E50000D0A0D0A00485454502F312E30203230C4
:102E60003020446F63756D656E7420666F6C6C6F97
:102E700077730D0A5365727665723A204156525F38
:102E8000536D616C6C5F5765627365727665720D28
:102E90000A436F6E74656E742D547970653A2069BB
:102EA0006D6167652F6A70670D0A0D0A00485454FA
:102EB000502F312E302034303120556E61757468BA
:102EC0006F72697A65640D0A5365727665723A208D
:102ED0004156525F536D616C6C5F576562736572EA
:102EE0007665720D0A5757572D41757468656E7473
:102EF00069636174653A2042617369632072656138
:102F00006C6D3D224E65656450617373776F7264BA
:102F1000220D0A436F6E74656E742D547970653A94
:102F200020746578742F68746D6C0D0A0D0A003476
:102F3000303120556E617574686F72697A656425E9
:102F4000454E44006C65646F66662E676966006C6A
:102F500065646F6E2E676966000000636865636B69
:102F600065640025732C20257300504F5354005383
:102F7000746172742054656C6E657420536572764A
:102F800065723A0D0A00D9000AFA0000000000013B
:102F9000040000000000000000000000000000002D
:102FA0000000000000000000000000000000C7D684
:102FB000AC7208000000536F004D6F004469004D73
:102FC0006900446F004672005361002532753A254E
:102FD0003032753A25303275002025752E25303275
:102FE000752E253034750025732C202573002A2A70
:102FF000204C4344204441544120474554204279C9
:103000007465733A202569202A2A0D0A0047455421
:10301000202F676C6F62616C776561746865722ED2
:1030200061736D782F476574576561746865723F89
:10303000436974794E616D653D5061646572626F7C
:10304000726E26436F756E7472794E616D653D4781
:1030500065726D616E7920485454502F312E310DB8
:103060000A486F73743A207777772E7765627365B5
:103070007276696365782E6E65740D0A4B656570AE
:103080002D416C6976653A203330300D0A436F6EFE
:103090006E656374696F6E3A204B6565702D416C87
:1030A0006976650D0A0D0A000D0A0D0A0D0A4461C4
:1030B00074656E20416E666F726465726E0D0A00F3
:1030C0005443502045696E74726167206765667568
:1030D0006E64656E2028485454505F434C49454EF9
:1030E0005429210D0A005443502045696E747261C1
:1030F00067206E6963687420676566756E64656EC7
:103100002028485454505F434C49454E5429210DC2
:103110000A0041525020526571756573740A0D00A2
:103120002563000011241FBECFEFD0E1DEBFCDBF6D
:1031300012E0A0E0B1E0E0EBF0E802C005900D92F3
:10314000A837B107D9F71DE0A8E7B2E001C01D928A
:10315000A33CB107E1F70E94B1180C9457400C94BE
:103160000000CFEFD0E1DEBFCDBF87E081B917B857
:103170001AB860E875E280E090E00E94E2190E94CF
:10318000643782E591E09F938F930E94EB198AE266
:1031900091E09F938F930E94EB1981EF90E09F93B2
:1031A0008F930E94EB1980E090E0A0E0B0E02DB793
:1031B0003EB72A5F3F4F0FB6F8943EBF0FBE2DBFFC
:1031C00000000196A11DB11D803432E493073FE059
:1031D000A30730E0B307A1F70E942E240E9481329A
:1031E0000E949F33EA9A789480E090E0A0E0B0E0FB
:1031F00000000196A11DB11D803824E892072EE140
:10320000A20720E0B207A1F70E94F83981E00E94EE
:10321000CD3860933B0D70933C0D80933D0D9093A2
:103220003E0D6091BC0777274091BB075527209141
:10323000BA0733278091B90799277F936F935F93DC
:103240004F933F932F939F938F9388ED90E09F939D
:103250008F930E94EB196091C40777274091C307B1
:1032600055272091C20733278091C10799277F9363
:103270006F935F934F933F932F939F938F9381EC23
:1032800090E09F938F930E94EB196091C00777277E
:103290004091BF0755272091BE0733278091BD0776
:1032A00099277F936F935F934F933F932F939F93B0
:1032B0008F938AEA90E09F938F930E94EB190E946C
:1032C000E3350E94BE352DB73EB7225E3F4F0FB6A5
:1032D000F8943EBF0FBE2DBF882349F08FE990E0E0
:1032E0009F938F930E94EB190F900F9002C00E9442
:1032F000D0252CE9A22E20E0B22E93E0C92E9DE02D
:10330000D92E88E8E82E80E0F82E02E910E0C0E728
:10331000D0E08FEE80937A000E9437238091C5071A
:1033200080FF19C0BF92AF920E94EB19C6010E94A4
:10333000A5290F900F90882319F01F930F9302C0B7
:10334000FF92EF920E94EB190F900F908091C507AA
:103350008E7F8093C50780916D0290916E02892BBC
:1033600041F484E794E090936E0280936D020E9492
:103370008C350E948E328091440D882351F26091E9
:10338000420D77274091410D55272091400D33275D
:1033900080913F0D99277F936F935F934F933F9356
:1033A0002F939F938F93DF93CF930E94EB191092EB
:1033B000440D8DB79EB70A960FB6F8949EBF0FBE08
:1033C0008DBFA7CF08950895FC0101C0319680817B
:1033D0008823E1F70895BF92CF92DF92EF92FF9298
:1033E0000F931F93CF93DF93CDB7DEB766970FB6DA
:1033F000F894DEBF0FBECDBFFE01B29601911191D0
:10340000FA83E983BB2493E0C92ED12CCC0EDD1EB8
:103410008DE0E82EF12CEC0EFD1E01C0BB24F8015E
:103420008491882309F47FC00F5F1F4F8532B9F75D
:10343000F8010F5F1F4F2491822F9927C0970A9799
:1034400010F0822F0AC02D871E86C7010E94823B82
:10345000B82EF8010F5F1F4F8491893631F18A36FB
:1034600028F48236D1F08336D1F619C0833741F083
:10347000883721F08F3699F648E018C040E116C031
:10348000E981FA813296FA83E983B291A29101C06F
:1034900011968C918823E1F7C2CF42E007C0898161
:1034A0009A8102969A838983BACF4AE0E981FA81A8
:1034B0003296FA83E9835527B601929182910E9450
:1034C0006C3C20E030E0F601E20FF31F80812F5FBB
:1034D0003F4F8823C1F7215030408B2D9927281763
:1034E0003907D4F4B21AA0E0B0E02B2D332705C081
:1034F000EA0FFB1F80E380831196F701A217B30741
:10350000B9F7AE0DBF1D1C92B601C7010E94373C32
:10351000B701C6010E94423CF60101C0319680818C
:103520008823E1F77BCF66960FB6F894DEBF0FBE17
:10353000CDBFDF91CF911F910F91FF90EF90DF9062
:10354000CF90BF900895292F382FC9010895EF9289
:10355000FF920F931F937B018C01607070709070CD
:10356000672F782F892F9927212F33274427552715
:10357000620F731F841F951FA80197012070407070
:103580005070542F432F322F2227620F731F841F36
:10359000951F1E2D0027FF24EE246E0D7F1D801F1A
:1035A000911F1F910F91FF90EF900895EF92FF925E
:1035B0000F931F93CF93DF93CDB7DEB724970FB64A
:1035C000F894DEBF0FBECDBF8C019A01AB0160E065
:1035D0007E010894E11CF11CF999FECFE62FFF272C
:1035E000DF01A00FB11F0E940940802DEE0DFF1DCD
:1035F00080836F5F643080F369817A818B819C81E5
:103600006F3FEFEF7E07EFEF8E07EFEF9E0711F4AE
:10361000CA01B90124960FB6F894DEBF0FBECDBF24
:10362000DF91CF911F910F91FF90EF90089520E0CF
:1036300030E0F901EE0FFF1FE20FF31FEE0FFF1F47
:10364000EE0FFF1FE658F84F82859385892B59F4BA
:1036500010821182128213821482158216821782BE
:103660001086118605C0828593850197938782878E
:103670002F5F3F4F25303105E1F60895DC0120E052
:1036800030E0422FE22FFF272F5F3F4FEE0FFF1F4B
:10369000EE0FFF1FE658FD4F80819181892B89F73E
:1036A000453020F4B183A08373836283089540E0A2
:1036B00050E0A42FE42FFF27EE0FFF1FEE0FFF1F98
:1036C000E658FD4F208131812115310529F04F5FEA
:1036D0005F4F2817390769F7A53010F471836083AD
:1036E0000895DC0120E030E0422FE22FFF272F5F1A
:1036F0003F4FEE0FFF1FEE0FFF1FE257FD4F808180
:103700009181892B89F7453020F4B183A08373839D
:10371000628308959C01EEE8F2E080819181821736
:10372000930711F411821082349682E0E23AF8078E
:10373000A1F708951F920F920FB60F9211248F9345
:103740008091B80781608093B8071092FD0C1092A9
:10375000FC0CEA988F910F900FBE0F901F90189558
:10376000CF93DF93C091D502D091D60260E070E094
:1037700086E0C830D807C1F4FB01EE0FFF1FE60F4B
:10378000F71FEE0FFF1FEE0FFF1FE658F84F2681C1
:103790003781408551858091E5029091E602A091A4
:1037A000E702B091E8021AC0C830D105E9F4FB0184
:1037B000EE0FFF1FE60FF71FEE0FFF1FEE0FFF1FAD
:1037C000E658F84F26813781408551858091E30284
:1037D0009091E402A091E502B091E6022817390722
:1037E0004A075B0709F45BC06F5F7F4F6530710567
:1037F00009F0BECF20E030E0F901EE0FFF1FE20F2D
:10380000F31FEE0FFF1FEE0FFF1FE658F84F8681E4
:103810009781A085B1850097A105B10509F044C045
:1038200086E0C830D807D9F48091CF028083809198
:10383000D00281838091D10282838091D2028383DE
:103840008091D30284838091D40285838091E502A4
:103850009091E602A091E702B091E8021CC028977F
:1038600049F58091CF0280838091D002818380913D
:10387000D10282838091D20283838091D302848398
:103880008091D40285838091E3029091E402A0911B
:10389000E502B091E60286839783A087B18784E62C
:1038A00090E09387828706C02F5F3F4F2530310518
:1038B00009F0A2CFDF91CF910895AB01BC0180E068
:1038C00090E09C01FC01EE0FFF1FE80FF91FEE0FC7
:1038D000FF1FEE0FFF1FE658F84F86819781A085E6
:1038E000B18584179507A607B70739F0C901019676
:1038F0008530910531F725E030E0C9010895CF9377
:10390000DF93EC01CB01BA010E945D1C853009F107
:10391000DE0140E050E099279C01220F331F280F61
:10392000391F220F331F220F331FF901E40FF51F38
:10393000E658F84F80818C93FA01EB5CF24F80815E
:10394000FD0186834F5F5F4F11964630510569F048
:10395000ECCFA5E3BDE0FE018FEF80838D918683E0
:1039600031968DE0AB33B807B9F7DF91CF91089569
:10397000EF92FF920F931F93FC0179018A0110C00F
:103980008081218132969927982F8827820F911D57
:10399000AA27BB27E80EF91E0A1F1B1F62507040A2
:1039A0006230710568F7672B51F080819927982F55
:1039B0008827AA27BB27E80EF91E0A1F1B1F98019C
:1039C000442755278FEF9FEFA0E0B0E0E822F922CF
:1039D0000A231B232E0D3F1D401F511FCA01AA277A
:1039E000BB2740705070820F931FA41FB51F809596
:1039F00090951F910F91FF90EF9008956F927F9295
:103A00008F929F92AF92BF92CF92DF92EF92FF92EE
:103A10000F931F936C013A014B018C01025F1F4F02
:103A20000E947F1C88E090E0F601958784872091B2
:103A3000A2023091A3022F5F3F4F3093A302209345
:103A4000A20280E490E0F8019783868380E8808773
:103A5000E32EF22EF582E48285E4F6018687F801F2
:103A60001182608A718A828A938A8091B9079091C3
:103A7000BA07A091BB07B091BC0784879587A6873A
:103A8000B7871386128620E030E040E050E064E122
:103A900070E0C8010E94B81CA92EB82EF801B386A8
:103AA000A2861F910F91FF90EF90DF90CF90BF9073
:103AB000AF909F908F907F906F900895CF92DF92FC
:103AC000EF92FF920F931F93CF93DF93AC014E5D64
:103AD0005F4F8C01025F1F4FE801CC84DD84EE84D0
:103AE000FF84E0E0F0E086E190E0E89FE001E99FFC
:103AF000D00DF89FD00D1124C953D84F88819981DA
:103B0000AA81BB818C159D05AE05BF0509F046C095
:103B10002C813D81DA018D919C9128173907F1F5AF
:103B2000FA0180859185A285B38588879987AA87C0
:103B3000BB8784819581A681B7818C879D87AE875D
:103B4000BF878585888B8B898F3F11F083E08B8BB6
:103B5000F80163817281FA0184859927807F9070D2
:103B60009595879595958795681B790B645170405D
:103B70007B01002711276C857D858E859F850E949E
:103B8000A71AE60EF71E081F191FC801B7010E94E9
:103B9000A71A6C877D878E879F874DC03196E53049
:103BA000F10509F0A0CF20E030E086E190E0289F09
:103BB000B001299F700D389F700D1124FB01E9534E
:103BC000F84F80819181A281B3810097A105B10551
:103BD00061F5C082D182E282F382DA018D919C91FB
:103BE00095838483EA018A819B8197838683888574
:103BF0009985AA85BB8580879187A287B3878C81A9
:103C00009D81AE81BF8184879587A687B7878D8583
:103C1000808B128A118A83E0838B148AFB01E45221
:103C2000F84F80818E7F808306C02F5F3F4F253005
:103C3000310509F0BACFDF91CF911F910F91FF901D
:103C4000EF90DF90CF900895EF92FF920F931F9324
:103C50007B018C0180E090E09C0186E190E0289F50
:103C6000F001299FF00D389FF00D1124E953F84F12
:103C700080819181A281B3818E159F05A007B10734
:103C800029F4848195818417950739F0C90101963B
:103C90008530910509F725E030E0C9011F910F91AA
:103CA000FF90EF90089540E050E0E42FFF27EE0FE3
:103CB000FF1FEE0FFF1FE257FD4F8081918100979C
:103CC00071F04F5F5F4F2091EE023091ED0282174D
:103CD000930759F70280F381E02D80E0099508955C
:103CE0000F931F93CF93DF93682F0AE712E0E0E072
:103CF000F0E0282F332786E190E0289FD001299F0C
:103D0000B00D389FB00D1124A953B84FED018E812D
:103D10009F81492F582FE801888199818417950741
:103D200039F031960C5F1F4FE630F10571F0EECFA0
:103D3000E53058F4EE0FFF1FEE0FFF1FE658FD4F62
:103D40000280F381E02D862F0995DF91CF911F919D
:103D50000F910895863038F5282F332786E190E0BB
:103D6000289FD001299FB00D389FB00D1124FD016F
:103D7000E953F84F10821182128213821582148245
:103D8000178216821086118612861386148615866F
:103D900016861786108A128A118A138AA452B84F7F
:103DA0008C918E7F8C930895AF92BF92CF92DF92C9
:103DB000EF92FF920F931F93CF93DF938C0177279E
:103DC00086E190E0689FE001699FD00D789FD00D5B
:103DD0001124C953D84F8E819F819093EC02809318
:103DE000EB028C819D819093EE028093ED02109204
:103DF000FE021092FD0284E09CE49093FA0280930C
:103E0000F90280E58093F7026C857D858E859F851C
:103E10000E94A71A9B01AC0188898093F8028889C7
:103E200081FF14C02F5F3F4F4F4F5F4F82E0809361
:103E3000FF0284E080930003809301038CE480936D
:103E4000020380E68093F70204E010E0CA01B901A2
:103E50000E94A71A6093F3027093F4028093F50214
:103E60009093F60288859985AA85BB858093EF0299
:103E70009093F002A093F102B093F202C8018896E9
:103E8000E92EF82EF092DA02E092D90286E08093D1
:103E9000E002488159816A817B8189EC92E00E942D
:103EA000FE1C1092FC021092FB02C090DA02D0902D
:103EB000D902B601685F7F4F8091D70299278F7032
:103EC0009070880F991F880F991F681B790B62509B
:103ED00070409B01442755276E5F7F4F83EE92E031
:103EE0000E94B81CA92EB82EB092FC02A092FB0230
:103EF00069EC72E0C801C6960E94052C188ADF9111
:103F0000CF911F910F91FF90EF90DF90CF90BF90D6
:103F1000AF9008958F929F92AF92BF92DF92EF92EF
:103F2000FF920F931F93CF93DF937B018C015A0174
:103F30004901EA9820E030E0D22E86E190E0289F07
:103F4000E001299FD00D389FD00D1124C953D84FBF
:103F500088819981AA81BB810097A105B105F1F4FF
:103F6000822F0E94AA1EE882F9820A831B83BD82E7
:103F7000AC829F828E8282ED94E0A0E0B0E08887E0
:103F80009987AA87BB8789E299E0A0E0B0E08C8797
:103F90009D87AE87BF878EE18B8B06C0D3942F5F42
:103FA0003F4F2530310541F62D2D332786E190E036
:103FB000289FF001299FF00D389FF00D1124E9533F
:103FC000F84F82E0808B6D2D80E090E00E94D41E3F
:103FD000EA9ADF91CF911F910F91FF90EF90DF90C0
:103FE000BF90AF909F908F900895482F552726E15E
:103FF00030E0429FF001439FF00D529FF00D1124DD
:10400000E953F84F2FEF3FEF328B218B91E1908BEB
:10401000682F80E090E00E94D41E0895FF920F93D5
:104020001F93CF93DF9320E030E0022F1127F80198
:10403000EE0FFF1FEE0FFF1FE658FD4F0190F081BE
:10404000E02D309709F453C12F5F3F4F8091EE026E
:104050009091ED02E817F90741F72091F802822FBD
:10406000992781FF46C084FF44C089EC92E00E94FA
:104070005E1D4091EB025091EC026091E302709161
:10408000E4028091E5029091E6020E94241EF82E3F
:1040900024E0281708F42BC1282F332786E190E06D
:1040A000289F8001299F100D389F100D112409535E
:1040B000184F8EE1E8018B8B6C857D858E859F8501
:1040C0000E94A71A6F5F7F4F8F4F9F4F0E94A71AC2
:1040D000F801648775878687978780E1808B6F2DCD
:1040E00080E090E00E94D41E81E090E09A8B898B62
:1040F000FEC0223051F589EC92E00E945E1D409195
:10410000EB025091EC026091E3027091E402809125
:10411000E5029091E6020E94241E682F853008F087
:10412000E6C0282F332786E190E0289FF001299FE1
:10413000F00D389FF00D1124E953F84F82E1808B88
:1041400080E090E00E94D41ED2C04091EB025091DA
:10415000EC026091E3027091E4028091E50290919B
:10416000E6020E94241EF82EE4E0E81760F589ECD0
:1041700092E00E945E1D8091F802992780FD02C0A6
:1041800082FFB5C02F2D332786E190E0289FE00104
:10419000299FD00D389FD00D1124C953D84F6C855D
:1041A0007D858E859F850E94A71A6F5F7F4F8F4FF9
:1041B0009F4F0E94A71A6C877D878E879F8788896B
:1041C00080FF3EC036C089EC92E00E945E1D4F2DFC
:1041D000552786E190E0489FE001499FD00D589F08
:1041E000D00D1124C953D84F888980FD03C0888918
:1041F00082FF2AC06C857D858E859F850E94A71AC7
:104200006F5F7F4F8F4F9F4F0E94A71A6C877D87EC
:104210008E879F87888980FF13C0000F111F000FB2
:10422000111F06581D4FF801228133818F2DF9018E
:10423000099580E1888B6F2D80E090E00E94D41E6C
:104240008F2D0E94AA1E53C0888983FF0BC08889C6
:1042500084FF08C089899A8901969A8B898B88E1A5
:10426000888B3AC086E190E0489F9001499F300DCD
:10427000589F300D1124F901E953F84F808984FFCC
:104280000AC0F901E452F84F808180FD04C08081AA
:10429000816080832CC086E190E0489FF001499FB7
:1042A000F00D589FF00D1124DF01A953B84FED0117
:1042B000888984FF1CC0E452F84F808180FF17C0BA
:1042C00089899A898F5F9F4F91F080E1888B8989D6
:1042D0009A8901969A8B898B000F111F000F111F6D
:1042E00006581D4FE801EA81FB818F2D0995DF916A
:1042F000CF911F910F91FF900895CF93DF93C0E06E
:10430000D0E086E190E0C89FF001C99FF00DD89FF2
:10431000F00D1124E953F84F8389882309F5808132
:104320009181A281B3810097A105B105F9F083E0E5
:10433000838B84898F5F848B8150863068F0EA9804
:1043400084E1808B6C2F80E090E00E94D41EEA9A7A
:104350008C2F0E94AA1E0AC08C2F0E94701E06C0BD
:1043600083898F3F19F083898150838B2196C530D3
:10437000D10539F6DF91CF910895AF92BF92CF92D8
:10438000DF92EF92FF920F931F934093EB022093E3
:10439000EC02F092F002E092EF021093F20200932E
:1043A000F1021092EE021092ED0220E034E530931B
:1043B000DA022093D90221E02093E00209EC12E016
:1043C000AB01BC01C8010E94FE1CC090DA02D09073
:1043D000D9028091D70299278F709070880F991F0A
:1043E000880F991FC81AD90A20E030E040E050E059
:1043F000B6018BEE92E00E94B81CA92EB82EB092A6
:10440000EE02A092ED02B80182E690E00E94052C37
:104410001F910F91FF90EF90DF90CF90BF90AF90E2
:104420000895CF93DF93C7EDD2E08091D7029091AA
:10443000D8028050914009F099C08091D9029091A2
:10444000DA02089709F092C08091DB02863009F009
:104450008DC08091DC02843009F088C02091EF0289
:104460003091F0024091F1025091F2028091B9072F
:104470009091BA07A091BB07B091BC0728173907E4
:104480004A075B0709F072C08091DD029091DE025D
:10449000E1E080309E0709F064C00E94B01B4091AB
:1044A000E5025091E6026091E7027091E802CE01C8
:1044B0000E970E947F1C88E096E09093D60280932E
:1044C000D5026091E5027091E6028091E702909139
:1044D000E8020E945D1C853008F5DE0140E050E0F6
:1044E00099279C01220F331F280F391F220F331FDA
:1044F000220F331FF901E40FF51FE658F84F8081B2
:10450000FD01828BFA01EB5CF24F8081FD01808717
:104510004F5F5F4F11964630510561F780E092E0A2
:104520009F838E838091E5029091E602A091E7023D
:10453000B091E802888F998FAA8FBB8F8091B907BD
:104540009091BA07A091BB07B091BC078E879F8757
:10455000A88BB98B69EC72E08CE390E00E94052C8B
:1045600005C08050924011F40E94B01BDF91CF91A2
:104570000895EF92FF920F931F938091D50290912F
:10458000D60226E08830920719F40E9411226AC0F0
:10459000089709F067C02091E7023091E802409146
:1045A000E9025091EA028091B9079091BA07A0916F
:1045B000BB07B091BC07281739074A075B0709F00A
:1045C00046C00E94B01B8091E0028130B9F5809115
:1045D000EB028823C1F0883009F044C0E090EF027C
:1045E000F090F0020091F1021091F2026091E3026A
:1045F0007091E4028091E5029091E60220E040E0B3
:104600000E94BD212FC020913F0D3091400D40915F
:10461000410D5091420D8091E3029091E402A091EE
:10462000E502B091E602281739074A075B07D1F483
:104630008091440D81608093440D14C0863011F444
:104640000E940E208091E002813161F409C02F5F49
:104650003F4F4F4F5F4F31F48091E002813111F4B1
:104660000E94531E1F910F91FF90EF900895CF93DA
:10467000DF938091B80781FF09C00E947D210E94CD
:10468000171B8091B8078D7F8093B8078091B8077A
:1046900080FD0DC016C0BE0180EB94E00E94762B19
:1046A000FC01EA53FD4F10820E94B92202C0C9ECFE
:1046B000D2E01A9BF0CF8091B8078E7F8093B80725
:1046C000EA9ADF91CF9108958F929F92AF92BF9215
:1046D000CF92DF92EF92FF920F931F93CF93DF93CE
:1046E000CDB7DEB7AA970FB6F894DEBF0FBECDBF29
:1046F0004B015C011FE0C12ED12CCC0EDD1E809140
:10470000C1079091C207A091C307B091C40785016A
:104710007401E822F9220A231B232091B907309162
:10472000BA074091BB075091BC0782239323A4236F
:10473000B523E816F9060A071B0719F48501740169
:1047400008C0E090BD07F090BE070091BF07109130
:10475000C00788E096E09E878D87B801A701CE014B
:1047600001960E947F1C8091B9079091BA07A09191
:10477000BB07B091BC07F60186879787A08BB18BEA
:10478000E08EF18E028F138FA5E3BDE08D918087BF
:10479000128A31962DE0AB33B207C1F720E031E049
:1047A000F6013183208388E090E09383828386E062
:1047B000848384E0858337832683BE016F5F7F4FC8
:1047C0008AE290E00E94052CCC24C501B4010E942D
:1047D0005D1CD82EC801B7010E945D1C853020F0F9
:1047E000F4E0FD15A8F025C024E02D1510F599275B
:1047F000FC01EE0FFF1FE80FF91FEE0FFF1FEE0F7A
:10480000FF1FE658F84F86829782A086B18611C0B6
:1048100080E090E000000196E7E280319E07D1F74A
:104820000E943723C394F4E1CF1679F680E090E03C
:1048300002C081E090E0AA960FB6F894DEBF0FBEEA
:10484000CDBFDF91CF911F910F91FF90EF90DF903F
:10485000CF90BF90AF909F908F9008950F931F932C
:104860000E94022540EC58EA60E073E68EE190E099
:104870000E94D61A6093B9077093BA078093BB075A
:104880009093BC074FEF5FEF6FEF70E082E290E034
:104890000E94D61A6093C1077093C2078093C30722
:1048A0009093C40740EC58EA60E071E086E290E043
:1048B0000E94D61A6093BD077093BE078093BF070E
:1048C0009093C0071092350D80E28093360D88E1F9
:1048D0008093370D81EB8093380D85E18093390DFE
:1048E0008FE680933A0D0E944D2C09EC12E0B8013E
:1048F0008CE390E00E94052CB8018CE390E00E94CC
:10490000052C1F910F9108954F925F926F927F92A5
:104910008F929F92AF92BF92CF92DF92EF92FF92CF
:104920000F931F933C019BEE492E92E0592EE72FE7
:10493000F62FF093EC02E093EB02A52FB42FB09387
:10494000EE02A093ED02C3010896C92ED82ED09294
:10495000F002C092EF02C3014C96A92EB82EB0927D
:10496000DA02A092D90281E18093E0028EEDC82E96
:104970008FEFD82EC40CD51CB901A801C6010E9426
:10498000FE1C1092F2021092F102E090DA02F09016
:10499000D90288E090E0E80EF91E8091D7029927AD
:1049A0008F709070880F991F880F991FE81AF90A65
:1049B00089E090E0E80EF91E97014427552787EF1C
:1049C0009FEFE80EF91EB701C20108970E94B81CBC
:1049D000892E982E9092F2028092F102B601C301C4
:1049E0008A960E94052C1F910F91FF90EF90DF9007
:1049F000CF90BF90AF909F908F907F906F905F907F
:104A00004F900895E1E8F0E080818D6080831092FE
:104A10008500109284008FE398E39093890080933F
:104A20008800EFE6F0E080818260808308951F9225
:104A30000F920FB60F9211242F938F939F93AF93E2
:104A4000BF938091FF0C9091000DA091010DB0914A
:104A5000020D0196A11DB11D8093FF0C9093000DD6
:104A6000A093010DB093020D8091FC0C9091FD0C70
:104A700001969093FD0C8093FC0C0197815B944010
:104A800018F0E0E0F0E009948091B807826080932C
:104A9000B80780916D0290916E02019790936E021B
:104AA00080936D02BF91AF919F918F912F910F9045
:104AB0000FBE0F901F901895E0E0F0E00994089564
:104AC000AC018091450D9091460D892BA1F020E01D
:104AD000F999FECFA22FBB27FD01EE0FFF1FEB5B65
:104AE000F24F80819181A40FB51F082E0E941140C2
:104AF0002F5F243068F30895089540EC58EA60E091
:104B000073E68EE190E00E94D61A6093B907709325
:104B1000BA078093BB079093BC074FEF5FEF6FEF2F
:104B200070E082E290E00E94D61A6093C107709311
:104B3000C2078093C3079093C40740EC58EA60E033
:104B400071E086E290E00E94D61A6093BD077093F0
:104B5000BE078093BF079093C0070895EF92FF921E
:104B60001F93CF93DF93C3E6D1E097EFE92E92E056
:104B7000F92EFE0121961491812F99279F938F93EF
:104B8000FF92EF920E94EB190F900F900F900F90F1
:104B9000112379F7DF91CF911F91FF90EF90089546
:104BA0006F927F928F929F92AF92BF92CF92DF923D
:104BB000EF92FF920F931F936090FF0C7090000D87
:104BC0008090010D9090020DE090FF0CF090000D90
:104BD0000091010D1091020D6091FF0C7091000D7C
:104BE0008091010D9091020D2CE330E040E050E007
:104BF0000E94DF3F5B016C01BB24C801B7012CE3BD
:104C000030E040E050E00E94DF3FCA01B9012CE3F0
:104C100030E040E050E00E94DF3F7B018C01FF2448
:104C2000C401B30120E13EE040E050E00E94DF3FDC
:104C3000CA01B90128E130E040E050E00E94DF3FC6
:104C40007727BF92AF92FF92EF927F936F938AEF95
:104C500092E09F938F930E94EB198DB79EB70896B1
:104C60000FB6F8949EBF0FBE8DBF1F910F91FF909E
:104C7000EF90DF90CF90BF90AF909F908F907F90FC
:104C80006F900895E091450DF091460D8091470D8C
:104C90009091480D24E532E0EE0FFF1FE20FF31F65
:104CA00091838083E091450DF091460DEE0FFF1F3B
:104CB000E20FF31F808191812091450D3091460DC7
:104CC0009F938F933F932F9380E193E09F938F93D4
:104CD0000E94EB198DB79EB706960FB6F8949EBF4B
:104CE0000FBE8DBF08952F923F924F925F926F92A9
:104CF0007F928F929F92AF92BF92CF92DF92EF926C
:104D0000FF920F931F93CF93DF93C0E0D0E091E623
:104D1000292E93E0392E88E5482E83E0582E03E5AE
:104D2000602E03E0702E1EE4812E13E0912EB9E474
:104D3000AB2EB3E0BB2EAEE3CA2EA3E0DA2EF1E336
:104D4000EF2EF3E0FF2EDF93CF933F922F920E943E
:104D5000EB1986E190E0C89F8001C99F100DD89F94
:104D6000100D11240953184FF80180819181A281FF
:104D7000B3819070A070B070BF93AF939F938F93E7
:104D80005F924F920E94EB19F80180819181A2817C
:104D9000B381892F9927AA27BB27BF93AF939F93EE
:104DA0008F937F926F920E94EB19F801808191811D
:104DB000A281B3818A2F9927AA27BB27BF93AF93DC
:104DC0009F938F939F928F920E94EB19F80180819D
:104DD0009181A281B3818B2F9927AA27BB27BF93EB
:104DE000AF939F938F93BF92AF920E94EB19F801FC
:104DF0002481358184819581892F9927322F22271B
:104E0000822B932B9F938F93DF92CF920E94EB196B
:104E1000F80183892DB73EB7205E3F4F0FB6F89457
:104E20003EBF0FBE2DBF99279F938F93FF92EF92A6
:104E30000E94EB1921960F900F900F900F90C530A4
:104E4000D10509F080CFDF91CF911F910F91FF9095
:104E5000EF90DF90CF90BF90AF909F908F907F901A
:104E60006F905F904F903F902F9008952F923F92B8
:104E70004F925F926F927F928F929F92AF92BF926A
:104E8000CF92DF92EF92FF920F931F93CF93DF9316
:104E9000C0E0D0E0BFE82B2EB3E03B2EAAE84A2EBC
:104EA000A3E05A2EF1E86F2EF3E07F2EECE78E2E72
:104EB000E3E09E2E77E7A72E73E0B72E62E7C62EBB
:104EC00063E0D62E55E6E52E53E0F52E8E01000F59
:104ED000111F0C0F1D1F000F111F000F111F06586F
:104EE000184FF801808199279F938F93DF93CF9379
:104EF00023EA33E03F932F930E94EB19F80181815D
:104F000099279F938F932EE933E03F932F930E942D
:104F1000EB19F801828199279F938F9329E933E058
:104F20003F932F930E94EB19F801838199279F9358
:104F30008F9324E933E03F932F930E94EB19F801FC
:104F4000848199279F938F933F922F920E94EB1910
:104F5000F801858199279F938F935F924F920E94CA
:104F6000EB19F80186819781A085B1859070A070BA
:104F7000B070BF93AF939F938F937F926F920E9475
:104F8000EB19F80186819781A085B1852DB73EB7D1
:104F9000205E3F4F0FB6F8943EBF0FBE2DBF892F46
:104FA0009927AA27BB27BF93AF939F938F939F9275
:104FB0008F920E94EB19F80186819781A085B185B7
:104FC0008A2F9927AA27BB27BF93AF939F938F93CD
:104FD000BF92AF920E94EB19F80186819781A0855C
:104FE000B1858B2F9927AA27BB27BF93AF939F9398
:104FF0008F93DF92CF920E94EB19F80182859385FF
:105000009F938F93FF92EF920E94EB1921962DB7F9
:105010003EB72A5E3F4F0FB6F8943EBF0FBE2DBF7E
:10502000C530D10509F052CFDF91CF911F910F917B
:10503000FF90EF90DF90CF90BF90AF909F908F90B8
:105040007F906F905F904F903F902F900895809148
:10505000590D99279F938F9380EB93E09F938F93A4
:105060000E94EB190F900F900F900F900895809170
:105070003A0D99279F938F938091390D99279F938C
:105080008F938091380D99279F938F938091370D3F
:1050900099279F938F938091360D99279F938F9394
:1050A0008091350D99279F938F9388EC93E09F9380
:1050B0008F930E94EB198DB79EB70E960FB6F8949A
:1050C0009EBF0FBE8DBF089586E290E00E946025CE
:1050D00040EC58EA60E071E086E290E00E94D61A67
:1050E0006093BD077093BE078093BF079093C0077E
:1050F0008091C00799279F938F938091BF0799272D
:105100009F938F938091BE0799279F938F93809150
:10511000BD0799279F938F938AEE93E09F938F9378
:105120000E94EB198DB79EB70A960FB6F8949EBFF2
:105130000FBE8DBF089582E290E00E9460254FEF80
:105140005FEF6FEF70E082E290E00E94D61A60930A
:10515000C1077093C2078093C3079093C4078091DF
:10516000C40799279F938F938091C30799279F9393
:105170008F938091C20799279F938F938091C10746
:1051800099279F938F9387E094E09F938F930E943A
:10519000EB198DB79EB70A960FB6F8949EBF0FBE57
:1051A0008DBF089582E390E00E9460254DE455E2B2
:1051B00066E07BE382E390E00E94D61A6093C5022A
:1051C0007093C6028093C7029093C8028091C80270
:1051D00099279F938F938091C70299279F938F93CD
:1051E0008091C60299279F938F938091C50299273A
:1051F0009F938F9382E294E09F938F930E94EB1989
:105200008DB79EB70A960FB6F8949EBF0FBE8DBF9E
:1052100008958EE190E00E94602540EC58EA60E03D
:1052200073E68EE190E00E94D61A6093B9077093FE
:10523000BA078093BB079093BC078091BC0799275E
:105240009F938F938091BB0799279F938F93809112
:10525000BA0799279F938F938091B90799279F93B6
:105260008F9380E494E09F938F930E94EB198DB706
:105270009EB70A960FB6F8949EBF0FBE8DBF0895D5
:10528000AF92BF92CF92DF92EF92FF920F931F9354
:105290008091450D9091460D892B09F44AC0A0904C
:1052A000450DB090460D6091470D7091480D2091CD
:1052B000490D30914A0DE0904B0DF0904C0D882730
:1052C0009927982F872F762F662744275527A901DE
:1052D00033272227620F731F841F951FCC24DD24E0
:1052E0006A0D7B1D8C1D9D1D002711271E2D00277B
:1052F000FF24EE246E0D7F1D801F911F60933F0DD4
:105300007093400D8093410D9093420D0E94642351
:1053100060913F0D7091400D8091410D9091420D33
:1053200011E0E12EF12C01E010E020E048E00E94C5
:10533000BD211F910F91FF90EF90DF90CF90BF9014
:10534000AF9008950E948C350895AF92BF92CF928E
:10535000DF92EF92FF920F931F93CF93DF93CDB71E
:10536000DEB722970FB6F894DEBF0FBECDBF9A838B
:10537000898364E071E0CE0101960E94543C6C0187
:10538000FF2410C0F394EF2DFF27EE0FFF1FEE0F49
:10539000FF1FE55BFE4F80819181892B19F480E02E
:1053A00090E03FC00F2D1127F801EE0FFF1FEE0F09
:1053B000FF1FE55BFE4FB601808191810E94DA3BC1
:1053C000892B01F7EE24FF2486E0A82E81E0B82E79
:1053D0006E010894C11CD11CB501C6010E94543C49
:1053E00040E050E060E070E00E946C3AF701EE0FA0
:1053F000FF1FEB5BF24F718360830894E11CF11C8B
:105400008AE0E816F10441F7000F111F000F111F89
:10541000055B1E4FF80182819381FC01099581E0B3
:1054200090E022960FB6F894DEBF0FBECDBFDF919D
:10543000CF911F910F91FF90EF90DF90CF90BF9091
:10544000AF90089590E0F999FECFE92FFF27DF0193
:105450005E96E754F84F8081082E0E9411409F5FAE
:10546000943088F390E0F999FECFE92FFF27DF0110
:105470009296EF53F84F8081082E0E9411409F5F53
:10548000943088F390E0F999FECFE92FFF27DF01F0
:105490009696E354F84F8081082E0E9411409F5F3A
:1054A000943088F30895CF93DF93DC01EB01AB01D7
:1054B00031C099279695879596958795FE0181939A
:1054C0009F019C9193709295907F9983FD018181BA
:1054D000882321F4E901219622E020C082958F7073
:1054E000890F8983FD0191819F70990F990F9A838C
:1054F0008281882319F4239621E010C08295869535
:1055000086958370890F8A83FD0182818F738B83D7
:10551000249613968C91882361F620E01882DA0194
:1055200008C0EC91FF27EF73F070E75AFB4FE4914E
:10553000ED93AC17BD07A9F7FD01922F02C08DE3D3
:1055400081939150E0F7A20FB11D1C92DF91CF9192
:105550000895FC012B988AE38EBD0DB407FC07C0AB
:10556000FCCF1EBC0DB407FEFDCF8EB581936150FC
:1055700070408FEF6F3F7807A1F72B9A0895FC01D9
:105580002B988AE78EBD0DB407FEFDCF81918EBDAD
:10559000615070400DB407FEFDCF61157105B1F784
:1055A0002B9A08952B98962F9F71982B9EBD0DB422
:1055B00007FEFDCF1EBC0DB407FEFDCF67FF04C084
:1055C0001EBC0DB407FEFDCF8EB52B9A992708950A
:1055D0002B988EBD0DB407FEFDCF6EBD0DB407FE3A
:1055E000FDCF2B9A0895FF920F931F93F62E082F4D
:1055F0000F710B3198F4182F107680915A0D1817EF
:1056000069F010935A0D63E08FEB0E94E82A12951F
:1056100016951770612F8FE90E94E82A6F2D802F51
:1056200080640E94E82A1F910F91FF9008950F93C4
:105630001F93082F99278F7190704B979CF4102F10
:10564000107680915A0D181769F010935A0D63E087
:105650008FEB0E94E82A129516951770612F8FE93B
:105660000E94E82A602F80E00E94D22A99271F9189
:105670000F9108950F931F938B01682F84ED0E9463
:10568000F32A602F86ED0E94F32A012F1127602F45
:1056900087ED0E94F32A8AEE0E94172B80FDFBCF34
:1056A0001F910F9108950F931F93682F84ED0E940F
:1056B000F32A61E082ED0E94F32A8AEE0E94172B02
:1056C00080FDFBCF60E082ED0E94F32A89ED0E940D
:1056D000172B082F1127102F002788ED0E94172B5A
:1056E0009927802B912B1F910F910895EF92FF9294
:1056F0000F931F93CF93DF93EC017B018CE10E940A
:10570000172B86FD08C089E30E94172B882319F404
:1057100000E010E072C060915B0D70915C0D80E064
:105720000E94F32A60915B0D70915C0D672F7727C3
:1057300081E00E94F32A60E08AE30E94D22A99273E
:1057400090935C0D80935B0D00915B0D10915C0D4F
:1057500060E08AE30E94D22A9927982F8827802B1D
:10576000912B90935C0D80935B0D60E08AE30E9427
:10577000D22A082F112760E08AE30E94D22A9927B3
:10578000982F8827082B192B60E08AE30E94D22AE1
:1057900060E08AE30E94D22AC017D10708F48E0184
:1057A000B801C7010E94A92A80915B0D90915C0D00
:1057B00080915B0D90915C0D019780509A4130F083
:1057C0006FEF8CE00E94F32A69E110C060915B0DDD
:1057D00070915C0D61508CE00E94F32A60915B0D2A
:1057E00070915C0D61507040672F77278DE00E94AB
:1057F000F32A60E48EE90E94E82AC801DF91CF9184
:105800001F910F91FF90EF900895EF92FF920F93E9
:105810001F93CF93DF93EC017B0100E010E08FE159
:105820000E94172B83FF09C086E69EE00197F1F7DF
:105830000F5F1F4F0233110591F760E082E00E9475
:10584000F32A6AE183E00E94F32A6C2F86E00E942B
:10585000F32AC050D64E6D2F7727C050DA4187E02B
:105860000E94F32A60E08AE70E94E82ABE01C7018D
:105870000E94BF2A60E88FE90E94E82A60E88FEB67
:105880000E94E82A6CE08FE90E94E82ADF91CF911C
:105890001F910F91FF90EF900895CF93DF938FEFBB
:1058A00080935A0D239A2B9A2F9A84B1886B84B9CE
:1058B000269880E58CBD81E08DBD80E090E0A0E081
:1058C000B0E000000196A11DB11D80342DE09207CB
:1058D00023E0A20720E0B207A1F76FEF8FEF0E944D
:1058E000E82A80E090E0A0E0B0E000000196A11D71
:1058F000B11D8034EDE09E07E3E0AE07E0E0BE07B7
:10590000A1F7C0E0D0E001C021968DE10E94172BE5
:1059100080FD04C0FDEFC83EDF07B1F710925C0DBB
:1059200010925B0DCCE9D4E0FE0164912197FE0159
:1059300084910E94F32A2396F4E0C83CDF07A1F784
:1059400060E071E080E10E943A2B60EC8BE10E9404
:10595000F32A64E08FE90E94E82A6AE774E384E1AD
:105960000E943A2B8FE10E94172B8093590D82E7FA
:105970000E94172B8093590DDF91CF910895CF93FB
:10598000DF939927880F991FAC0123E0440F551F1F
:105990002A95E1F7481B590BE3E8FDE09A012E0F29
:1059A0003F1FD9018C91897F81608C933897DA01F0
:1059B000AE0FBF1FED011B821A8211961C921E9220
:1059C000E9018881877F88838DE59DE0ED019D83D6
:1059D0008C8382E392E09A87898787E392E09C87B1
:1059E0008B8788E692E09F838E833D96E40FF51FB8
:1059F00080818C7F8083DF91CF9108952F923F9299
:105A00005F926F927F928F929F92AF92BF92CF924E
:105A1000DF92EF92FF920F931F93CF93DF93CDB757
:105A2000DEB7A9970FB6F894DEBF0FBECDBF582ED4
:105A3000882E9924C401880F991F9C0173E0220FBE
:105A4000331F7A95E1F7281B390BF901ED57F24F17
:105A5000808180FD0DC0F901E558F24F8FE29FE291
:105A600093838283F901E857F24F80818C7F808392
:105A700089010857124FF8018081837009F467C0CB
:105A8000813079F40E94CD3860933B0D70933C0DCA
:105A900080933D0D90933E0DF80180818C7F826054
:105AA0008083AA24BB2486E190E0889E6001899EC1
:105AB000D00C989ED00C112487EC97E0C80ED91E0C
:105AC000F6012189328980E794E0289F7001299F9F
:105AD000F00C389FF00C112480EB92EFE80EF91EC9
